:0400000081EF00F09C
:10000800A67FA67FA67FA67F4000A67F4000A67F8A
:10001800A67FA67FA67FA67FA67FA67FA67FA67FB0
:10002800A67F400040004000A67FA67FA67FA67F4F
:10003800A67FA67FA67FA67FA67FA67FA67F5B7BDF
:10004800B57DA67FA67FA67F40004000A67FA67F3D
:10005800A67FA67FA67F4000A67FA67FA67FA67F55
:10006800A67FA67FA67FA67FA67FA67FA67FA67F60
:10007800A67FA67FA67FA67F4000A67FA67FA67F35
:10008800A67FA67FA67FA67FA67FA67FA67FA67F40
:10009800AD7BA67FA67FA67F4000A67F40004000DC
:1000A800A67FA67FA67FA67FA67FA67FA67FA67F20
:1000B800A67FA67FA67FA67FA67FA67FA67FA67F10
:1000C800A67FA67FA67FA67FA67FA67FA67FA67F00
:1000D800A67FA67FA67FA67FA67FA67FA67FA67FF0
:1000E8004000A67FA67FA67F400040004000400059
:0E00F800A67FA67FA67FA67FFF009CEFE9F003
:10F60000001F001C001F001E001F001E001F001F07
:10F61000001E001F001E001F00819FE0FC407E8036
:10F62000FC0000534420436172643A2072656164B7
:10F630003531323A20435243206572726F7220286E
:10F640002530347820213D20253034782C207265F7
:10F650007472793D2564290A0D00496D6167652042
:10F6600066696C652025732F445249564525632EE3
:10F6700044534B2069732061737369676E6564201E
:10F68000746F2064726976652025630A0D006469D1
:10F69000736B5F696F63746C3A20706472763D259A
:10F6A000642C20636D643D25642C20627566663D84
:10F6B0003078256C783A207265733D25640A0D0018
:10F6C000534420436172643A20207265616435318D
:10F6D000323A20616464723D25386C642C206F6678
:10F6E00066733D25642C20636F756E743D25640A36
:10F6F0000D00534420436172643A20777269746547
:10F700003531323A20616464723D25386C642C20B6
:10F710006F6666733D25642C20636F756E743D259E
:10F72000640A0D00534420436172643A2077726981
:10F7300074653531323A206661696C656420746F96
:10F740002067657420746F6B656E2C2074696D651D
:10F750006F75740A0D005573652050574D31202088
:10F76000252E32664D487A284475747920252E312D
:10F770006625252920666F72203830383820636C62
:10F780006F636B0A0D00534420436172643A207723
:10F79000726974653531323A2074696D656F7574BC
:10F7A0002C20726573706F6E73652069732025302D
:10F7B00032780A0D00534420436172643A20434D6D
:10F7C0004435382C2052333D2530327820253032D4
:10F7D0007820253032782025303278202530327854
:10F7E0000A0D0025733A204552524F523A20636C5D
:10F7F0006F636B20737065656420256420697320D6
:10F800006E6F7420737570706F727465640A0D008A
:10F81000534420436172643A20434D44382C2052B3
:10F82000373D253032782025303278202530327827
:10F83000202530327820253032780A0D0064697333
:10F840006B5F696F63746C3A20706472763D2564F7
:10F850002C20636D643D25643A204E6F74206861EE
:10F860006E646C65642E0A0D006469736B5F72656B
:10F8700061643A2020706472763D25642C207365A3
:10F8800063746F723D256C642C20636F756E743DDC
:10F8900025640A0D006469736B5F77726974653A59
:10F8A00020706472763D25642C20736563746F72DA
:10F8B0003D256C642C20636F756E743D25640A0DC4
:10F8C00000536574757020445331333037205254DF
:10F8D00043206D6F64756C6520666F7220636C6F7A
:10F8E000636B206465766963652E0D0A00534420BE
:10F8F000436172643A204343532028436172642079
:10F9000043617061636974792053746174757329FC
:10F9100020697320300A0D00534420436172643A19
:10F920002077726974653531323A2043524320653D
:10F9300072726F72202872657472793D2564290A8B
:10F940000D00534420436172643A20436172642085
:10F95000706F776572207570207374617475732091
:10F9600062697320697320300A0D0072656164203A
:10F970004D425220706172746974696F6E207461B7
:10F98000626C6520617420736563746F7220300A45
:10F990000D00536574757020465432303058442041
:10F9A0006D6F64756C6520666F72204155582064D8
:10F9B00065766963652E0D0A0053442043617264C5
:10F9C0003A2053444843206F7220534458432063E5
:10F9D0006172642064657465637465640A0D002552
:10F9E000733A204552524F523A206D6F646520257C
:10F9F00064206973206E6F7420737570706F7274F9
:10FA000065640A0D002A2A2A20415558206465762B
:10FA10006963652063616E6E6F7420737570706FBB
:10FA200072742E202A2A2A0D0A0053442043617240
:10FA3000643A20696E697469616C697A65202E2E5A
:10FA40002E207375636365656465640A0D00534415
:10FA500020436172643A20756E65787065637465E1
:10FA60006420726573706F6E736520253032780A7A
:10FA70000D002573204C6F616420416472203D208D
:10FA80002530366C782C2053697A65203D2025304E
:10FA900034780D0A00534420436172643A20414394
:10FAA0004D44343120726573706F6E7365206973D5
:10FAB00020253032780A0D00534420436172643AA5
:10FAC0002077726974653531323A20746F6B656ED8
:10FAD00020697320253032780A0D004D656D6F72F4
:10FAE0007920303030303030202D202530366C58A1
:10FAF00048202564204B42204F4B0D0A00534420E0
:10FB0000436172643A20434D443539207265737005
:10FB10006F6E736520697320253032780A0D00708E
:10FB20006172746974696F6E20737461727473208A
:10FB3000617420736563746F7220256C640A0D0014
:10FB400053657475702074696D65723020666F72CC
:10FB500020636C6F636B206465766963652E0D0AA4
:10FB600000665F777269746528293A204552524FC2
:10FB700052207265733D25642C206E3D25640A0D6C
:10FB800000665F7265616428293A204552524F52DF
:10FB9000207265733D25642C206E3D25640A0D009E
:10FBA000536574757020554152543120666F722030
:10FBB000415558206465766963652E0D0A005365CA
:10FBC0006C6563742843504D203D20312C204D53EB
:10FBD000444F53203D203229203A20006661696C51
:10FBE000656420746F20777269746520736563742F
:10FBF0006F7220256C640A0D00554E4B4E4F574EC8
:10FC000020444556494345203A20434D4428253059
:10FC10003278290D0A006661696C656420746F2072
:10FC20007265616420736563746F7220256C640A69
:10FC30000D000A0D534420436172643A20696E69D5
:10FC40007469616C697A65202E2E2E0A0D00554E5E
:10FC50004B4E4F574E20756E696D6F6E20434D446D
:10FC60002825303278290D0A0050726F6772616D55
:10FC70002046696C65204C6F6164204572726F721A
:10FC80002E0D0A004661696C656420746F206F70E8
:10FC9000656E20534420436172642E2E0A0D004687
:10FCA00061696C656420746F206D6F756E7420538C
:10FCB0004420436172642E0A0D0053442043617254
:10FCC000643A2041434D4434312C2052313D25309B
:10FCD00032780A0D006661696C656420746F207269
:10FCE00065616420736563746F7220300A0D000AC9
:10FCF0004D656D6F7279206572726F72206174202C
:10FD00002530366C58480A0D006469736B5F696E64
:10FD1000697469616C697A65282564292E2E2E0A1A
:10FD20000D0046543230305844205553422D554131
:10FD30005254206D6F64756C6520005344204361FC
:10FD400072643A206E6F74207375706F7072746590
:10FD5000640A0D00534420436172643A20434D44C9
:10FD6000302C2052313D253032780A0D00202020E1
:10FD70002020202020202020202020202020202083
:10FD8000202020200D007761697420666F7220703A
:10FD9000726F6772616D6D6572202E2E2E0D0025BB
:10FDA000732535337320434845434B53554D3A2013
:10FDB000253032780A0D004D656D6F727920303034
:10FDC00030303030202D202530366C58480D004919
:10FDD000324320627573206973206E6F74206578DA
:10FDE0006973742E0A0D00706879736963616C2001
:10FDF00064726976657220213D20300A0D00665FCD
:10FE00006C7365656B28293A204552524F52202564
:10FE1000640A0D006E6F20464154333220706172C7
:10FE2000746974696F6E0A0D00665F73796E63287A
:10FE3000293A204552524F522025640A0D006E6F18
:10FE4000204D4252207369676E61747572650A0DA8
:10FE5000004E6F204F53206469726563746F72792E
:10FE60002E0A0D0044533133303720525443206D55
:10FE70006F64756C652000534420436172643A20BE
:10FE800074696D656F75740A0D006E6F2076616C14
:10FE9000696420766F6C756D650A0D0053442043CC
:10FEA0006172643A2072656164792E0A0D005350C4
:10FEB000495F53445F636F6E666967757265004E94
:10FEC0006F20626F6F74206469736B2E0A0D0025BA
:10FED000732F554D4F4E5F43504D2E42494E0025D6
:10FEE000732F4343505F42444F532E42494E0025E7
:10FEF000732F554D4F4E5F444F532E42494E002AAB
:10FF00002B2C3A3B3C3D3E5B5D7C223F7F002573C2
:10FF10002053656C65637465642E0A0D0025732F8C
:10FF2000445249564525632E44534B004E6F20538F
:10FF30004420436172643F0A0D0025732F434249F8
:10FF40004F532E42494E0025732F4D53444F532E8D
:10FF5000535953006E6F742065786973742E0D0ABF
:10FF600000426F6172643A2025730A0D0044657483
:10FF70006563742025730A0D00454D5538303838B7
:10FF80005F52414D0044657465637465642E0D0ACB
:10FF90000025732F494F2E53595300464154333295
:10FFA0002020200025732530366C783A0043504DD0
:10FFB0004449534B5300444F534449534B5300253A
:10FFC00073253034783A00286E756C6C2900202532
:10FFD000303278006661743A20006275663A20001B
:10FFE00052443A200057523A2000303A2F2F005303
:10FFF000443A2000696E66006E616E002573000051
:020000040001F9
:100000009CC6D9F49DC6DAF4DE6ADD6A9AC609F5A3
:100010009BC60AF558ECD2F009C5ABF60AC5ACF69A
:100020000601ACBF18EF80F016EF80F01BEF80F0F8
:100030000B0E61EF85F0D890AB35D96EAC35DA6E2A
:10004000860ED926070EDA22DEC4C6F6DDC4C7F650
:10005000C651C711D8A42FEF80F031EF80F034EFF4
:1000600080F00C0E61EF85F09CC6D9F49DC6DAF4E1
:10007000C6C6DEF4C7C6DDF49E91C6C6D9F4C7C6AF
:10008000DAF4DF50D8B447EF80F049EF80F070EF3A
:1000900080F020EE01F0C651D926C751DA22DF5098
:1000A000C6ECF4F00601BB6FBBB159EF80F05BEF1B
:1000B00080F070EF80F09E51D8B461EF80F063EF74
:1000C00080F06DEF80F0BBA568EF80F06AEF80F004
:1000D0006DEF80F00A0E61EF85F0000E61EF85F0A4
:1000E000C6C6D9F4C7C6DAF4DF6A20EE01F0C651FD
:1000F000D926C751DA22DF5098ECBAF00601BB6F5F
:10010000BBA185EF80F087EF80F08AEF80F0030ECF
:1001100061EF85F09E51D8B490EF80F092EF80F0BF
:100120009BEF80F0BBA597EF80F099EF80F09BEFFD
:1001300080F06AEF80F0C6C64DF6C7C64EF6000ED8
:10014000506F000E4F6FC9ECC7F04DC6C4F64EC6D7
:10015000C5F6040E0601C419C511D8A4B2EF80F08B
:10016000B4EF80F0B7EF80F0010E61EF85F0C5517C
:1001700009E1020EC45DD8A0C0EF80F0C2EF80F0AC
:10018000C5EF80F00D0E61EF85F020EE2CF0C6512A
:10019000D926C751DA22DEC4B7F6DEC4B8F6DEC40B
:1001A000B9F6DEC4BAF63B0EC625096E000EC721AD
:1001B0000A6EB7ECFCF0020E0A180910D8B4E3EF8F
:1001C00080F0E5EF80F0E7EF80F0C2EF80F0460EC0
:1001D0000601C625096E000EC7210A6EB7ECFCF0B9
:1001E00009C5C0F60AC5C1F60601C26BC36BC05192
:1001F000C111C211C311D8A400EF81F002EF81F048
:1002000012EF81F0540EC625096E000EC7210A6E4A
:10021000DFECEFF009C5C0F60AC5C1F60BC5C2F6A2
:100220000CC5C3F6060120EE18F0C651D926C751F9
:10023000DA22C0C6DEF4C1C6DEF4C2C6DEF4C3C62E
:10024000DEF420EE40F0C651D926C751DA2210EE76
:1002500003F0C651E126C751E222DFC4E7F420EEE5
:1002600003F0C651D926C751DA22DE04D8B43BEFD9
:1002700081F03DEF81F04EEF81F020EE03F0C651AA
:10028000D926C751DA22020EDE18D8B44AEF81F01F
:100290004CEF81F04EEF81F0C2EF80F0C0C609F55F
:1002A000C1C60AF5C2C60BF5C3C60CF520EE03F0B5
:1002B000C651D926C751DA22DF509F6F9F510D6E6C
:1002C0000E6A0F6A106A25ECF7F009C5C0F60AC578
:1002D000C1F60BC5C2F60CC5C3F6060120EE3DF013
:1002E000C651D926C751DA22DF509F6FA06B20EE8E
:1002F0000AF0C651D926C751DA229FC6DEF4A0C63D
:10030000DDF420EE0AF0C651D926C751DA22DE50BC
:10031000DE10D8B48EEF81F090EF81F0C2EF80F064
:1003200020EE0AF0C651D926C751DA22DEC49FF664
:10033000DDC4A0F620EE0AF0C651D926C751DA2254
:10034000DEC4A1F6DDC4A2F6FF0EA125A36FFF0E49
:10035000A221A46F9F51A315A56FA051A415A66F4C
:10036000A551A611D8B4B7EF81F0B9EF81F0BBEF7A
:1003700081F0C2EF80F0410EC625096E000EC72144
:100380000A6EB7ECFCF0060120EE08F0C651D92643
:10039000C751DA2209C5DEF40AC5DDF420EE08F003
:1003A000C651D926C751DA22DEC49FF6DDC4A0F6B5
:1003B0000F0E9F17000EA0179F51A011D8B4E3EFA6
:1003C00081F0E5EF81F0E7EF81F0C2EF80F0430EBE
:1003D000C625096E000EC7210A6EB7ECFCF009C5F0
:1003E000B3F60AC5B4F60601B56BB66BB351B411DA
:1003F000B511B611D8A4FFEF81F001EF82F011EF33
:1004000082F0500EC625096E000EC7210A6EDFEC81
:10041000EFF009C5B3F60AC5B4F60BC5B5F60CC5C1
:10042000B6F63E0E0601C625096E000EC7210A6EFD
:10043000B7ECFCF009C5B1F60AC5B2F60601B15138
:10044000B211D8A426EF82F028EF82F02AEF82F0D2
:10045000C2EF80F020EE08F0C651D926C751DA224B
:10046000DEC49FF6DDC4A0F6040EA16FD890A033C1
:100470009F33A12F36EF82F0B1519F25A26FB25169
:10048000A021A36FA46BD8B0A42BA56BC051A2254B
:10049000AD6FC151A321AE6FC251A421AF6FC35143
:1004A000A521B06FAD51B35DAE51B459AF51B5593F
:1004B000B051B659D8B05FEF82F061EF82F063EFD0
:1004C00082F0C2EF80F0AD51B35D096EAE51B45908
:1004D0000A6EAF51B5590B6EB051B6590C6E20EE85
:1004E0000AF0C651D926C751DA22DEC49FF6DDC410
:1004F000A0F69FC60DF5A0C60EF50F6A106A94EC23
:10050000F1F009C5BCF60AC5BDF60BC5BEF60CC5B3
:10051000BFF60601BC51BD11BE11BF11D8A493EFA7
:1005200082F095EF82F097EF82F0C2EF80F0000E3C
:10053000C56F000EC46FF60EBC5DFF0EBD59FF0EF9
:10054000BE590F0EBF59D8B0A8EF82F0AAEF82F0C3
:10055000AEEF82F0000EC56F030EC46FBF51BE1127
:1005600009E1F60EBC5DFF0EBD59D8B0BAEF82F0BE
:10057000BCEF82F0C0EF82F0000EC56F020EC46FB8
:10058000BF51BE1109E1F60EBC5D0F0EBD59D8B0CA
:10059000CCEF82F0CEEF82F0D2EF82F0000EC56F8A
:1005A000010EC46FC451C511D8A4D9EF82F0DBEF9E
:1005B00082F0DDEF82F0C2EF80F0020EBC259F6F6B
:1005C000000EBD21A06F000EBE21A16F000EBF2145
:1005D000A26F20EE14F0C651D926C751DA229FC669
:1005E000DEF4A0C6DEF4A1C6DEF4A2C6DEF420EE80
:1005F0001CF0C651D926C751DA22B7C6DEF4B8C6F8
:10060000DEF4B9C6DEF4BAC6DEF4B151B7259F6F89
:10061000B251B821A06F000EB921A16F000EBA210E
:10062000A26F20EE20F0C651D926C751DA229FC60C
:10063000DEF4A0C6DEF4A1C6DEF4A2C6DEF4AD513F
:10064000B7259F6FAE51B821A06FAF51B921A16FEF
:10065000B051BA21A26F20EE28F0C651D926C75159
:10066000DA229FC6DEF4A0C6DEF4A1C6DEF4A2C67E
:10067000DEF4030EC419C511D8A441EF83F043EF93
:1006800083F0A0EF83F05A0EC625096E000EC72135
:100690000A6EB7ECFCF009500A10D8B452EF83F0A0
:1006A00054EF83F056EF83F0C2EF80F0060120EEA6
:1006B00008F0C651D926C751DA22DE50DE10D8B470
:1006C00064EF83F066EF83F068EF83F0C2EF80F0B1
:1006D0005C0EC625096E000EC7210A6EDFECEFF036
:1006E000060120EE24F0C651D926C751DA2209C5E9
:1006F000DEF40AC5DEF40BC5DEF40CC5DEF420EE34
:1007000014F0C651D926C751DA22DEC49FF6DEC4E2
:10071000A0F6DEC4A1F6DEC4A2F6020ED8909F3782
:10072000A037A137A237E82E8EEF83F09FC6A7F639
:10073000A0C6A8F6A1C6A9F6A2C6AAF640EF84F004
:1007400020EE08F0C651D926C751DA22DE50DE105D
:10075000D8A4ADEF83F0AFEF83F0B1EF83F0C2EF39
:1007600080F020EE20F0C651D926C751DA22DEC42F
:100770009FF6DEC4A0F6DEC4A1F6DEC4A2F6C05128
:100780009F25A36FC151A021A46FC251A121A56FC4
:10079000C351A221A66F20EE24F0C651D926C7511D
:1007A000DA22A3C6DEF4A4C6DEF4A5C6DEF4A6C62D
:1007B000DEF4020EC419C511D8B4E1EF83F0E3EF03
:1007C00083F029EF84F020EE14F0C651D926C751EA
:1007D000DA22DEC49FF6DEC4A0F6DEC4A1F6DEC4D3
:1007E000A2F6010E9F15A36F000EA015A46F000EB8
:1007F000A115A56F000EA215A66F20EE14F0C6512C
:10080000D926C751DA22DEC409F5DEC40AF5DEC4F2
:100810000BF5DEC40CF5030E0D6E000E0E6E000E11
:100820000F6E000E106E25ECF7F0D8900C320B32E4
:100830000A3209320601A3510924A76FA4510A20E4
:10084000A86FA5510B20A96FA6510C20AA6F40EFED
:1008500084F020EE14F0C651D926C751DA22DEC446
:100860009FF6DEC4A0F6DEC4A1F6DEC4A2F6D890E0
:100870009F35A76FA035A86FA135A96FA235AA6FC4
:10088000FF0EA7259F6F010EA821A06F000EA921C2
:10089000A16F000EAA21A26F0A0E54EF84F0D89027
:1008A000A233A133A0339F33E82E4FEF84F020EE24
:1008B00018F0C651D926C751DA229F51DE5CA051EB
:1008C000DE58A151DE58A251DE58D8B06AEF84F04C
:1008D0006CEF84F06EEF84F0C2EF80F020EE10F049
:1008E000C651D926C751DA22FF0EDE6EFF0EDE6E2C
:1008F000FF0EDE6EFF0EDD6EDD52DD5210EE0CF0EF
:10090000C651E126C751E222DEC4E6F4DEC4E6F4B5
:10091000DEC4E6F4DEC4E6F420EE05F0C651D926C6
:10092000C751DA22800EDF6E030EC419C511D8A498
:100930009CEF84F09EEF84F04BEF85F0600EC625AF
:10094000096E000EC7210A6EB7ECFCF009040A100C
:10095000D8A4ADEF84F0AFEF84F04BEF85F0C6C6BE
:1009600034F6C7C635F6010E0601B725366F000E00
:10097000B821376F000EB921386F000EBA21396FD8
:1009800089ECEDF00009D8A4C8EF84F0CAEF84F038
:100990004BEF85F0060120EE05F0C651D926C75170
:1009A000DA22DF6A2E0EC625096E020EC7210A6EF4
:1009B000B7ECFCF0550E091807E1AA0E0A18D8A4E6
:1009C000E4EF84F0E6EF84F04BEF85F0300E0601A3
:1009D000C625096E000EC7210A6EDFECEFF0520E3D
:1009E00009180DE1520E0A180AE1610E0B1807E111
:1009F000410E0C18D8A4FFEF84F001EF85F04BEF07
:100A000085F0140E0601C625096E020EC7210A6E76
:100A1000DFECEFF0720E09180DE1720E0A180AE110
:100A2000410E0B1807E1610E0C18D8A41AEF85F0DF
:100A30001CEF85F04BEF85F0180E0601C625096EF8
:100A4000020EC7210A6EDFECEFF0060120EE10F077
:100A5000C651D926C751DA2209C5DEF40AC5DEF42B
:100A60000BC5DEF40CC5DEF41C0EC625096E020EA5
:100A7000C7210A6EDFECEFF0060120EE0CF0C65144
:100A8000D926C751DA2209C5DEF40AC5DEF40BC542
:100A9000DEF40CC5DEF4C6C6D9F4C7C6DAF4C4C6A3
:100AA000DFF40701844B852B060120EE06F0C651CA
:100AB000D926C751DA2284C7DEF485C7DDF46DEF8D
:100AC00080F01200000E0501A36F7DC5A4F57EC560
:100AD000A5F57FC5A6F580C5A7F5A7BF74EF85F07E
:100AE00072EF85F088EF85F0010EA36FA4C509F5BC
:100AF000A5C50AF5A6C50BF5A7C50CF59BECFCF042
:100B000009C5A4F50AC5A5F50BC5A6F50CC5A7F53D
:100B1000000E0501A96F000EA86F51C597F552C5CB
:100B200098F5A351D8B497EF85F099EF85F0ADEF24
:100B300085F0A351D8A49FEF85F0A1EF85F0A7EF32
:100B400085F0000E896F2B0E886FABEF85F0000EDD
:100B5000896F2D0E886F88C5A3F5A4C509F5A5C5B5
:100B60000AF5A6C50BF5A7C50CF522ECE8F00904BB
:100B70000A10D8A4BEEF85F0C0EF85F0F3EF85F042
:100B80000501A351D8B4C7EF85F0C9EF85F0D2EFC6
:100B900085F0A3C500F89707D8A09807000EA96FA5
:100BA000010EA86F000EA825096E080EA9210A6E75
:100BB000F40E0B6EFF0E0C6EF0ECFBF00501FD0E5B
:100BC0009727FF0E98237BC51AF57CC51BF5000EF1
:100BD0001C6E080E1D6E97C51EF598C51FF5E6EC38
:100BE000F1F093EF8AF0A4C509F5A5C50AF5A6C5ED
:100BF0000BF5A7C50CF522ECE8F009500A10D8A4B3
:100C000004EF86F006EF86F026EF86F00501A3518B
:100C1000D8B40DEF86F00FEF86F018EF86F0A3C57D
:100C200000F89707D8A09807000EA96F010EA86FCB
:100C3000000EA825096E080EA9210A6EF80E0B6E8B
:100C4000FF0E0C6EF0ECFBF0DEEF85F0000E050100
:100C5000AA6F000EAB6F800EAC6F3F0EAD6F000E33
:100C6000926F000E916FA4C509F5A5C50AF5A6C53A
:100C70000BF5A7C50CF5000E0D6E000E0E6E000EE6
:100C80000F6E000E106EECECF0F0D8B04AEF86F06C
:100C90004CEF86F02BEF87F059EF86F093C5AAF55D
:100CA00094C5ABF595C5ACF596C5ADF50501914B71
:100CB000922BAAC524F5ABC525F5ACC526F5ADC567
:100CC00027F5000E286E000E296E200E2A6E410EAA
:100CD0002B6E57ECACF024C593F525C594F526C5CD
:100CE00095F527C596F505019351A45D096E9451BC
:100CF000A5590A6E9551A6590B6E9651A7590C6EBF
:100D000092ECF9F00CBE90EF86F00C500B100A102C
:100D100009E1020E095CD8A090EF86F092EF86F010
:100D20004EEF86F093C53DF594C53EF595C53FF56C
:100D300096C540F5A4C541F5A5C542F5A6C543F540
:100D4000A7C544F59FECE6F0D8A0A9EF86F0ABEF7D
:100D500086F04EEF86F00501AA51A45D096EAB51F5
:100D6000A5590A6EAC51A6590B6EAD51A7590C6E20
:100D700092ECF9F00CBECAEF86F00C500B100A1082
:100D800007E1020E095CD8B0C8EF86F0CAEF86F022
:100D900012EF87F0AAC5A4F5ABC5A5F5ACC5A6F5BD
:100DA000ADC5A7F52BEF87F0AAC53DF5ABC53EF560
:100DB000ACC53FF5ADC540F5000E416E000E426E6C
:100DC000200E436E410E446E30ECB2F03DC5AAF5E4
:100DD0003EC5ABF53FC5ACF540C5ADF50501910786
:100DE000D8A09207AA51A45D096EAB51A5590A6E0D
:100DF000AC51A6590B6EAD51A7590C6E92ECF9F09F
:100E00000CBE10EF87F00C500B100A1007E1020E19
:100E1000095CD8B00EEF87F010EF87F012EF87F083
:100E2000CAEF86F0A4C53DF5A5C53EF5A6C53FF5BC
:100E3000A7C540F5AAC541F5ABC542F5ACC543F51C
:100E4000ADC544F59FECE6F0D8A029EF87F02BEF75
:100E500087F0D4EF86F081C58BF58BC58CF554BE39
:100E600034EF87F036EF87F03CEF87F053C584F519
:100E700054C585F541EF87F0000E0501856F060E1C
:100E8000846F84C58FF585C590F505018F4B902B38
:100E9000660E8C19D8A44FEF87F051EF87F071EFF1
:100EA00087F092BF58EF87F056EF87F064EF87F036
:100EB000000EAA6F000EAB6F800EAC6F3F0EAD6FD1
:100EC000000E926F000E916F670E8B19D8B46BEF06
:100ED00087F06DEF87F071EF87F091518F27925176
:100EE0009023000EA26F000EA16FA4C599F5A5C5B1
:100EF0009AF5A6C59BF5A7C59CF5AAC593F5ABC504
:100F000094F5ACC595F5ADC596F502EF88F099C599
:100F10003DF59AC53EF59BC53FF59CC540F5AAC574
:100F200041F5ABC542F5ACC543F5ADC544F530EC74
:100F3000B2F03DC56DF53EC56EF53FC56FF540C5D8
:100F400070F5B9ECC3F06DC59DF56EC59EF56FC526
:100F50009FF570C5A0F59DC509F59EC50AF59FC50D
:100F60000BF5A0C50CF51CECE6F009C58DF50AC51E
:100F70008EF599C53DF59AC53EF59BC53FF59CC5D7
:100F800040F59DC528F59EC529F59FC52AF5A0C544
:100F90002BF5AAC524F5ABC525F5ACC526F5ADC521
:100FA00027F557ECACF024C541F525C542F526C51B
:100FB00043F527C544F523ECFBF03DC599F53EC547
:100FC0009AF53FC59BF540C59CF5AAC53DF5ABC557
:100FD0003EF5ACC53FF5ADC540F5000E416E000EC7
:100FE000426E200E436E410E446E30ECB2F03DC5B1
:100FF000AAF53EC5ABF53FC5ACF540C5ADF505015D
:10100000A14BA22B8F51A15DA251800A4F6E90512E
:10101000800A4F58D8A00FEF88F011EF88F087EFC3
:1010200087F0AAC524F5ABC525F5ACC526F5ADC539
:1010300027F5000E286E000E296EA00E2A6E400EB7
:101040002B6E57ECACF024C59DF525C59EF526C545
:101050009FF527C5A0F599C53DF59AC53EF59BC5F9
:101060003FF59CC540F59DC541F59EC542F59FC520
:1010700043F5A0C544F59FECE6F0D8B042EF88F008
:1010800044EF88F04FEF88F0000E05019D6F000ED1
:101090009E6F000E9F6F000EA06F78EF88F099C5CD
:1010A00009F59AC50AF59BC50BF59CC50CF59DC5C0
:1010B0000DF59EC50EF59FC50FF5A0C510F5ECEC1E
:1010C000F0F0D8A066EF88F068EF88F078EF88F04D
:1010D00005018DB16EEF88F070EF88F078EF88F041
:1010E000000E9D6F000E9E6F000E9F6F000EA06F92
:1010F000A4C509F5A5C50AF5A6C50BF5A7C50CF548
:101100009DC50DF59EC50EF59FC50FF5A0C510F543
:1011100057ECA3F009C599F50AC59AF50BC59BF5DF
:101120000CC59CF599C53DF59AC53EF59BC53FF5A7
:101130009CC540F5000E286E000E296E200E2A6E0A
:10114000410E2B6E93C524F594C525F595C526F55E
:1011500096C527F557ECACF024C541F525C542F5F9
:1011600026C543F527C544F59FECE6F0D8A0BBEFB4
:1011700088F0BDEF88F0E6EF88F00501914B922BE7
:1011800093C524F594C525F595C526F596C527F58F
:10119000000E286E000E296E200E2A6E410E2B6E58
:1011A00057ECACF024C593F525C594F526C595F507
:1011B00027C596F5660E05018C19D8A4E2EF88F0D4
:1011C000E4EF88F0E6EF88F08F4B902B93C5AAF5FB
:1011D00094C5ABF595C5ACF596C5ADF591C582F551
:1011E00092C583F5000E05018A6F000E876F000E11
:1011F000866F000EA26F000EA16FE4EF89F099C513
:101200003DF59AC53EF59BC53FF59CC540F5AAC581
:1012100041F5ABC542F5ACC543F5ADC544F530EC81
:10122000B2F03DC56DF53EC56EF53FC56FF540C5E5
:1012300070F5B9ECC3F06DC59DF56EC59EF56FC533
:101240009FF570C5A0F59DC509F59EC50AF59FC51A
:101250000BF5A0C50CF51CECE6F00ABE3BEF89F0DF
:101260000A5007E10A0E095CD8B039EF89F03BEF6C
:1012700089F04BEF89F09DC509F59EC50AF59FC51C
:101280000BF5A0C50CF51CECE6F009C58DF50AC5FB
:101290008EF550EF89F0000E05018E6F090E8D6FEF
:1012A00005018A51D8A457EF89F059EF89F081EFF1
:1012B00089F083BF60EF89F05EEF89F081EF89F0FC
:1012C000000EA825D96E080EA921DA6E2E0EDF6E4B
:1012D000A84BA92B9707D8A09807010E8A6F81EF1A
:1012E00089F0000EA825D96E080EA921DA6E300EFD
:1012F000DF6EA84BA92B9707D8A098078607D8A020
:10130000870786518711D8A488EF89F08AEF89F082
:1013100071EF89F0000EA825D96E080EA921DA6EAA
:101320008D51300FDF6EA84BA92B9707D8A09807D7
:1013300099C53DF59AC53EF59BC53FF59CC540F561
:101340009DC528F59EC529F59FC52AF5A0C52BF595
:10135000AAC524F5ABC525F5ACC526F5ADC527F561
:1013600057ECACF024C541F525C542F526C543F53B
:1013700027C544F523ECFBF03DC599F53EC59AF52C
:101380003FC59BF540C59CF5AAC53DF5ABC53EF5EF
:10139000ACC53FF5ADC540F5000E416E000E426E86
:1013A000200E436E410E446E30ECB2F03DC5AAF5FE
:1013B0003EC5ABF53FC5ACF540C5ADF505018207AF
:1013C000D8A08307A14BA22B8F51A15DA251800A07
:1013D0004F6E9051800A4F58D8B0F1EF89F0F3EF7B
:1013E00089F001EF8AF0A9BFFFEF89F0A95109E167
:1013F0004B0EA85DD8A0FFEF89F001EF8AF0FFEF58
:1014000088F0000EA26F4F0EA16F000EA125D96EBD
:10141000080EA221DA6EDF6A000E4F6E080E506EC3
:10142000A8514F5EA951505AA1514F24096EA251A3
:1014300050200A6E000E0B6E080E0C6EA8C50DF53E
:10144000A9C50EF589ECFAF00501A851A15DA86FB8
:10145000A951A259A96FA351D8A431EF8AF034EF52
:101460008AF0010E35EF8AF0000EA16FA26B57A231
:101470003CEF8AF03EEF8AF06CEF8AF04EEF8AF094
:10148000A807D8A0A907000EA825D96E080EA92183
:10149000DA6E300EDF6E9707D8A098079751A15DDE
:1014A000A251800A4F6E9851800A4F58D8B05BEF16
:1014B0008AF05DEF8AF06CEF8AF0A851A15DA2512D
:1014C000800A4F6EA951800A4F58D8A06AEF8AF05F
:1014D0006CEF8AF040EF8AF0A351D8B472EF8AF033
:1014E00074EF8AF07FEF8AF0A807D8A0A907000E52
:1014F000A825D96E080EA921DA6EA3C5DFF4A15183
:10150000975FA251985B7BC51AF57CC51BF5000E51
:10151000A8251C6E080EA9211D6E97C51EF598C53D
:101520001FF5E6ECF1F012007FC696F680C697F63E
:1015300083C6D9F484C6DAF4DE6ADD6A7DC6D7F5DF
:101540007EC6D8F5A60E0501D96F060EDA6F21EC1E
:10155000E7F00601956F9551D8A4B1EF8AF0B3EF8B
:101560008AF0C3EF8AF020EE0FF07D51D9267E512C
:10157000DA22DF50956F9551D8B4C1EF8AF0C3EFEE
:101580008AF0C6EF8AF09551D1EF8EF020EE0EF082
:101590007D51D9267E51DA22DFB2D1EF8AF0D3EF26
:1015A0008AF0D6EF8AF0070ED1EF8EF020EE10F021
:1015B0007D51D9267E51DA2210EE10F07D51E126C0
:1015C0007E51E222E6C489F6E6C48AF6E6C48BF6CA
:1015D000E6C48CF6815189258D6F82518A218E6FE8
:1015E000000E8B218F6F000E8C21906FDE508D5D71
:1015F000DE508E59DE508F59DE509059D8B003EF2F
:101600008BF005EF8BF013EF8BF020EE10F07D5197
:10161000D9267E51DA22DEC485F6DDC486F6851D24
:10162000816F861D826F81518211D8A41AEF8BF0D1
:101630001CEF8BF01EEF8BF0C8EF8EF020EE10F059
:101640007D51D9267E51DA22FF0EDE14856F010E00
:10165000DE14866F000EDE14876F000EDE14886FB6
:101660008551861187118811D8A439EF8BF03BEF93
:101670008BF00CEF8EF020EE10F07D51D9267E51CC
:10168000DA22DEC485F6DEC486F6DEC487F6DEC462
:1016900088F60A0E51EF8BF0D89088338733863363
:1016A0008533E82E4CEF8BF020EE0AF0A651D926B8
:1016B000A751DA22DEC489F6DDC48AF6FF0E892539
:1016C0008B6FFF0E8A218C6F85518B15986F865119
:1016D0008C15996F98519911D8A471EF8BF073EF15
:1016E0008BF03BEF8CF020EE10F07D51D9267E512F
:1016F000DA22DE50DE10DE10DE10D8A482EF8BF08E
:1017000084EF8BF0B5EF8BF020EE06F07D51D926FB
:101710007E51DA22DEC49CF6DEC49DF6DEC49EF65F
:10172000DEC49FF69C519D119E119F11D8A49BEF82
:101730008BF09DEF8BF0D1EF8BF07DC660F67EC60F
:1017400061F6000E626F000E636F000E646F000E94
:10175000656F09EC9EF060C69CF661C69DF662C698
:101760009EF663C69FF6D1EF8BF07DC660F67EC60F
:1017700061F620EE14F07D51D9267E51DA22DEC4C6
:1017800062F6DEC463F6DEC464F6DEC465F609EC18
:101790009EF060C69CF661C69DF662C69EF663C664
:1017A0009FF606019C519D119E119F11D8A4DBEF5D
:1017B0008BF0DDEF8BF0DFEF8BF0C8EF8EF09C0548
:1017C0009D119E119F11D8A4E8EF8BF0EAEF8BF0EA
:1017D000F5EF8BF020EE0FF07D51D9267E51DA2205
:1017E000020EDF6E020ED1EF8EF09C290AE19D29D8
:1017F00008E19E2906E19F29D8A401EF8CF003EFB0
:101800008CF00EEF8CF020EE0FF07D51D9267E513A
:10181000DA22010EDF6E010ED1EF8EF020EE14F011
:101820007D51D9267E51DA229CC6DEF49DC6DEF4B7
:101830009EC6DEF49FC6DEF420EE06F07D51D9266A
:101840007E51DA22DE50DE10DE10DE10D8A42BEF3F
:101850008CF02DEF8CF03BEF8CF020EE06F07D51FC
:10186000D9267E51DA229CC6DEF49DC6DEF49EC6E1
:10187000DEF49FC6DEF420EE0EF07D51D9267E51B7
:10188000DA22DFAE46EF8CF048EF8CF085EF8CF07B
:10189000220E7D25176F000E7E21186F20EE18F0A6
:1018A0007D51D9267E51DA22DEC419F6DEC41AF63D
:1018B000DEC41BF6DEC41CF6000E1E6F010E1D6F8B
:1018C00020EE01F0A651D926A751DA22DF50FDEC17
:1018D000DCF00009D8B46FEF8CF071EF8CF07CEF86
:1018E0008CF0060120EE0FF07D51D9267E51DA22D0
:1018F000010EDF6E0BEF8CF0060120EE0EF07D5135
:10190000D9267E51DA227F0EDF16A6C615F5A7C6A8
:1019100016F520EE14F07D51D9267E51DA22DEC470
:1019200017F5DEC418F5DEC419F5DEC41AF5EFECC0
:10193000EDF015C5A2F616C5A3F617C5A4F618C591
:10194000A5F60601A251A311A411A511D8A4ABEFCD
:101950008CF0ADEF8CF0B7EF8CF020EE0FF07D51F6
:10196000D9267E51DA22020EDF6EF2EF8BF098510B
:10197000A2279951A323000EA423000EA52381C6FC
:1019800085F682C686F6090E876FD8908633853332
:10199000872FC5EF8CF085C69AF686C69BF69A51BE
:1019A0009B11D8B4D6EF8CF0D8EF8CF09CEF8DF073
:1019B0009A519825856F9B519921866F20EE0AF0E8
:1019C000A651D926A751DA228551DE5C8651DE5810
:1019D000D8B0EDEF8CF0EFEF8CF0FFEF8CF020EE55
:1019E0000AF0A651D926A751DA22DEC485F6DDC455
:1019F00086F69851855D9A6F995186599B6F96C668
:101A000017F697C618F6A2C619F6A3C61AF6A4C604
:101A10001BF6A5C61CF69AC61DF69BC61EF620EE42
:101A200001F0A651D926A751DA22DF50FDECDCF0F7
:101A30000009D8B41EEF8DF020EF8DF02BEF8DF064
:101A4000060120EE0FF07D51D9267E51DA22010EDB
:101A5000DF6E0BEF8CF006019A51856F9B51866FFC
:101A6000876B886B20EE18F07D51D9267E51DA22E3
:101A7000DEC489F6DEC48AF6DEC48BF6DEC48CF6DC
:101A8000A251895D8D6FA3518A598E6FA4518B59D4
:101A90008F6FA5518C59906F85518D5D86518E59F0
:101AA00087518F5988519059D8B059EF8DF05BEF1D
:101AB0008DF08BEF8DF0220E7D25096E000E7E21BC
:101AC0000A6E20EE18F07D51D9267E51DA22DEC44E
:101AD00085F6DDC486F6A251855FA351865B090EAB
:101AE000D89085378637E82E70EF8DF08551962592
:101AF0000B6E865197210C6E020E0E6E000E0D6E4F
:101B000089ECFAF0060120EE0EF07D51D9267E51C7
:101B1000DA227F0EDF169AC685F69BC686F6090E78
:101B2000D89085378637E82E90EF8DF085C6A0F6E1
:101B300086C6A1F662EF8EF020EE18F07D51D92610
:101B40007E51DA22A251DE180FE1A351DE180CE11A
:101B5000A451DE1809E1A551DE18D8B4B2EF8DF01A
:101B6000B4EF8DF0FDEF8DF020EE0AF07D51D92617
:101B70007E51DA2210EE10F07D51E1267E51E222F4
:101B8000DE50E65CDE50E658DE50E658DE50E658A1
:101B9000D8B0CDEF8DF0CFEF8DF0FDEF8DF0220EB0
:101BA0007D25196F000E7E211A6FA2C61BF6A3C6F3
:101BB0001CF6A4C61DF6A5C61EF6000E206F010E6B
:101BC0001F6F20EE01F0A651D926A751DA22DF506F
:101BD000B1ECDDF00009D8B4F0EF8DF0F2EF8DF04C
:101BE000FDEF8DF0060120EE0FF07D51D9267E51DC
:101BF000DA22010EDF6E0BEF8CF0060120EE18F0FA
:101C00007D51D9267E51DA22A2C6DEF4A3C6DEF4C7
:101C1000A4C6DEF4A5C6DEF420EE10F07D51D92670
:101C20007E51DA22DEC485F6DDC486F6FF0E851508
:101C3000876F010E8615886F87510008A06F885145
:101C4000D8A0E82A0208A16FA051815DA151825954
:101C5000D8B02DEF8EF02FEF8EF033EF8EF081C6DF
:101C6000A0F682C6A1F620EE10F07D51D9267E5155
:101C7000DA22DEC485F6DDC486F6FF0E8515876F91
:101C8000010E8615886F87517D25896F88517E21C9
:101C90008A6F220E8925096E000E8A210A6E96C669
:101CA0000BF597C60CF5A0C60DF5A1C60EF589EC8F
:101CB000FAF0060120EE0EF07D51D9267E51DA228F
:101CC000000EDB8EA051815FA151825B83C6D9F4E7
:101CD00084C6DAF4A051DE26A151DD22A051962758
:101CE000A151972320EE10F07D51D9267E51DA22A2
:101CF000A051DE26A151DE22000EDE22DE2220EEE1
:101D000010F07D51D9267E51DA2210EE0AF07D5175
:101D1000E1267E51E222DE50E65CDE50E658DE50DF
:101D2000E658DE50E658D8A098EF8EF09AEF8EF085
:101D3000AAEF8EF020EE0AF07D51D9267E51DA22EC
:101D4000DEC491F6DEC492F6DEC493F6DEC494F6E9
:101D5000B8EF8EF020EE10F07D51D9267E51DA22B8
:101D6000DEC491F6DEC492F6DEC493F6DEC494F6C9
:101D700020EE0AF07D51D9267E51DA2291C6DEF49A
:101D800092C6DEF493C6DEF494C6DEF413EF8BF055
:101D900020EE0EF07D51D9267E51DA22000EDB8C2A
:101DA000000E12007DC6D7F57EC6D8F5A00E05013F
:101DB000D96F060EDA6F21ECE7F006019B6F9B519D
:101DC000D8A4E5EF8EF0E7EF8EF0EFEF8EF020EE87
:101DD0000FF07D51D9267E51DA22DF509B6F9B5147
:101DE000D8B4F5EF8EF0F7EF8EF0FAEF8EF09B514E
:101DF000D2EF92F020EE0AF07D51D9267E51DA2200
:101E00007F51DE5C8051DE588151DE588251DE58B0
:101E1000D8B00DEF8FF00FEF8FF02AEF8FF020EE9C
:101E20000EF07D51D9267E51DA22DFB21AEF8FF003
:101E30001CEF8FF02AEF8FF020EE0AF07D51D926AB
:101E40007E51DA22DEC47FF6DEC480F6DEC481F67F
:101E5000DEC482F620EE10F07D51D9267E51DA22C2
:101E6000DEC493F6DEC494F6DEC495F6DEC496F6C0
:101E7000000E976F000E986F000E996F000E9A6F0C
:101E800020EE10F07D51D9267E51DA2297C6DEF47D
:101E900098C6DEF499C6DEF49AC6DEF47F5180114E
:101EA00081118211D8B457EF8FF059EF8FF0DDEF29
:101EB00091F020EE0AF0A051D926A151DA22DEC419
:101EC00083F6DDC484F68351856F8451866F876BFA
:101ED000886B090ED8908537863787378837E82E84
:101EE0006AEF8FF085C69CF686C69DF687C69EF67D
:101EF00088C69FF69351941195119611D8B483EF2B
:101F00008FF085EF8FF022EF90F0FF0E7F25096EA6
:101F1000FF0E80210A6EFF0E81210B6EFF0E8221C3
:101F20000C6E9CC60DF59DC60EF59EC60FF59FC6A0
:101F300010F594ECF1F009C583F60AC584F60BC5DB
:101F400085F60CC586F6FF0E06019325096EFF0E79
:101F500094210A6EFF0E95210B6EFF0E96210C6EDA
:101F60009CC60DF59DC60EF59EC60FF59FC610F5D5
:101F700094ECF1F009500601835D0A5084590B502E
:101F800085590C508659D8A0C8EF8FF0CAEF8FF052
:101F900022EF90F0FF0E9C25836FFF0E9D21846F32
:101FA000FF0E9E21856FFF0E9F21866F831D876F19
:101FB000841D886F851D896F861D8A6FFF0E93258E
:101FC0008B6FFF0E94218C6FFF0E95218D6FFF0E8E
:101FD00096218E6F87518B158F6F88518C15906F5E
:101FE00089518D15916F8A518E15926F20EE10F0E8
:101FF0007D51D9267E51DA228FC6DEF490C6DEF4FA
:1020000091C6DEF492C6DEF420EE10F07D51D926A2
:102010007E51DA22DE507F5FDE50805BDE50815BD6
:10202000DD50825B20EE14F07D51D9267E51DA22FC
:10203000DEC4A2F6DEC4A3F6DEC4A4F6DEC4A5F6B2
:102040009DEF90F020EE06F07D51D9267E51DA22E8
:10205000DEC4A2F6DEC4A3F6DEC4A4F6DEC4A5F692
:10206000A251A311A411A511D8A439EF90F03BEF10
:1020700090F08FEF90F07DC660F67EC661F6000EA0
:10208000626F000E636F000E646F000E656F09ECE7
:102090009EF060C6A2F661C6A3F662C6A4F663C649
:1020A000A5F60601A205A311A411A511D8A45BEF02
:1020B00090F05DEF90F068EF90F020EE0FF07D5122
:1020C000D9267E51DA22020EDF6E020ED2EF92F096
:1020D000A2290AE1A32908E1A42906E1A529D8A497
:1020E00074EF90F076EF90F081EF90F020EE0FF02B
:1020F0007D51D9267E51DA22010EDF6E010ED2EF1C
:1021000092F020EE06F07D51D9267E51DA22A2C649
:10211000DEF4A3C6DEF4A4C6DEF4A5C6DEF420EE2B
:1021200014F07D51D9267E51DA22A2C6DEF4A3C670
:10213000DEF4A4C6DEF4A5C6DEF4A251A311A411F8
:10214000A511D8B4A6EF90F0A8EF90F0DDEF91F0D4
:1021500062EF91F09C517F5F9D51805B9E51815B4E
:102160009F51825B20EE10F07D51D9267E51DA22FC
:102170009C51DE269D51DE229E51DE229F51DE22A1
:1021800020EE0EF07D51D9267E51DA22DFA2CBEF70
:1021900090F0CDEF90F0F9EF90F07DC660F67EC63E
:1021A00061F6A2C662F6A3C663F6A4C664F6A5C627
:1021B00065F609EC9EF060C6A2F661C6A3F662C69B
:1021C000A4F663C6A5F60601A251A311A411A51198
:1021D000D8A4EDEF90F0EFEF90F00FEF91F0000E3C
:1021E0007F6F000E806F000E816F000E826F71EFA7
:1021F00091F07DC63FF67EC640F6A2C641F6A3C664
:1022000042F6A4C643F6A5C644F66CECAEF03FC653
:10221000A2F640C6A3F641C6A4F642C6A5F606013C
:10222000A2290AE1A32908E1A42906E1A529D8A445
:102230001CEF91F01EEF91F028EF91F020EE0FF0DF
:102240007D51D9267E51DA22010EDF6E7EEF90F0AD
:10225000A551A411A31109E1020EA25DD8A033EF8C
:1022600091F035EF91F04AEF91F020EE14F0A0518B
:10227000D926A151DA22DE50A25DDE50A359DE50EC
:10228000A459DE50A559D8A048EF91F04AEF91F03B
:1022900054EF91F020EE0FF07D51D9267E51DA22D5
:1022A000020EDF6E65EF90F020EE14F07D51D9261E
:1022B0007E51DA22A2C6DEF4A3C6DEF4A4C6DEF4A2
:1022C000A5C6DEF47F519C5D80519D5981519E5978
:1022D00082519F59D8A06FEF91F071EF91F0AAEF62
:1022E00090F020EE10F07D51D9267E51DA227F51F8
:1022F000DE268051DE228151DE228251DE22FF0E57
:102300007F15836F010E8015846F000E8115856F18
:10231000000E8215866F8351841185118611D8B401
:1023200094EF91F096EF91F0DDEF91F0A0C615F5E6
:10233000A1C616F5A2C617F5A3C618F5A4C619F5C9
:10234000A5C61AF5EFECEDF015C597F616C598F68B
:1023500017C599F618C59AF6060197519811991163
:102360009A11D8A4B6EF91F0B8EF91F0C2EF91F0C6
:1023700020EE0FF07D51D9267E51DA22020EDF6E5B
:1023800065EF90F07FC683F680C684F681C685F639
:1023900082C686F60A0ED2EF91F0D8908633853346
:1023A00084338333E82ECDEF91F083519727845106
:1023B00098238551992386519A2320EE10F07D5160
:1023C000D9267E51DA2210EE0AF07D51E1267E51A7
:1023D000E222DE50E65CDE50E658DE50E658DE5083
:1023E000E658D8B0F6EF91F0F8EF91F014EF92F0D4
:1023F00020EE10F07D51D9267E51DA2210EE0AF03F
:102400007D51E1267E51E222DEC4E6F4DEC4E6F42C
:10241000DEC4E6F4DEC4E6F420EE0EF07D51D926EB
:102420007E51DA22000EDB8C20EE10F07D51D92691
:102430007E51DA22FF0EDE14836F010EDE14846FEC
:10244000000EDE14856F000EDE14866F835184113A
:1024500085118611D8B42FEF92F031EF92F0F7EF9B
:102460008EF020EE18F07D51D9267E51DA22975158
:10247000DE180FE19851DE180CE19951DE1809E1E0
:102480009A51DE18D8B447EF92F049EF92F0F7EF87
:102490008EF020EE0EF07D51D9267E51DA22DFAE8D
:1024A00054EF92F056EF92F093EF92F0220E7D25CA
:1024B000176F000E7E21186F20EE18F07D51D9267F
:1024C0007E51DA22DEC419F6DEC41AF6DEC41BF62B
:1024D000DEC41CF6000E1E6F010E1D6F20EE01F013
:1024E000A051D926A151DA22DF50FDECDCF0000921
:1024F000D8B47DEF92F07FEF92F08AEF92F0060170
:1025000020EE0FF07D51D9267E51DA22010EDF6ECA
:102510007EEF90F0060120EE0EF07D51D9267E511F
:10252000DA227F0EDF16220E7D25196F000E7E2126
:102530001A6F97C61BF698C61CF699C61DF69AC662
:102540001EF6000E206F010E1F6F20EE01F0A0514D
:10255000D926A151DA22DF50B1ECDDF00009D8B460
:10256000B4EF92F0B6EF92F0C1EF92F0060120EED8
:102570000FF07D51D9267E51DA22010EDF6E7EEFFB
:1025800090F0060120EE18F07D51D9267E51DA2216
:1025900097C6DEF498C6DEF499C6DEF49AC6DEF479
:1025A000F7EF8EF012000601C851C911D8A4DBEF75
:1025B00092F0DDEF92F0E0EF92F0090EC6EF96F0A8
:1025C0003F0ECC17CA0E9A6F060E9B6F180E9C6FAB
:1025D000070E9D6FCCC69EF600EC80F007011A6FC7
:1025E0001A51D8A4F6EF92F0F8EF92F0B6EF96F009
:1025F00018C71BF719C71CF71B0E06019F6F070EA4
:10260000A06FCAC6A1F6CBC6A2F6A0ECC1F0070126
:102610001A6F1A51D8A40FEF93F011EF93F01AEF3D
:1026200093F042AF16EF93F018EF93F01AEF93F098
:10263000060E1A6FCCC6CDF61C0E0601CD17D8B407
:1026400024EF93F026EF93F052EF94F007011A5124
:10265000D8B42DEF93F02FEF93F045EF93F0040EE5
:102660001A19D8A436EF93F038EF93F041EF93F0B6
:102670001B0E0601A36F070EA46F01ECEBF0070120
:102680001A6F0601CC8760EF93F01FC7CDF6110ECD
:102690000601CD17D8B44FEF93F051EF93F056EFFA
:1026A00093F0070E07011A6F60EF93F0CCA55BEF74
:1026B00093F05DEF93F060EF93F0080E07011A6F4F
:1026C00007011A51D8A467EF93F069EF93F078EF00
:1026D00094F00601CCA76FEF93F071EF93F078EFD1
:1026E00094F015ECFFF009C504F70AC505F70BC512
:1026F00006F70CC507F70E0E07013525096E000E0B
:1027000036210A6E04C70BF505C70CF506C70DF593
:1027100007C70EF5EFECF6F0160E07013525096E2A
:10272000000E36210A6E04C70BF505C70CF506C767
:102730000DF507C70EF5EFECF6F018C710F519C741
:1027400011F535C712F536C713F54AECF5F010C58B
:1027500008F711C509F712C50AF713C50BF70701EA
:1027600020EE0BF03551D9263651DA22200EDF6EDD
:1027700018C70DF519C70EF535C70FF536C710F593
:10278000000E116E000E126E000E136E000E146E0F
:10279000D8ECFAF01C0E07013525096E000E362123
:1027A0000A6E000E0B6E000E0C6E000E0D6E000E0B
:1027B0000E6EEFECF6F0070120EE04F01851D9266A
:1027C0001951DA22010EDF6E085109110A110B119D
:1027D000D8B4EDEF93F0EFEF93F078EF94F020EEB4
:1027E0002CF01851D9261951DA22DEC40CF7DEC4B8
:1027F0000DF7DEC40EF7DEC40FF71B0E0601606F87
:10280000070E616F08C762F609C763F60AC764F668
:102810000BC765F6000E666F000E676F000E686FDF
:10282000000E696F71ECBFF007011A6F1A51D8A43E
:102830001CEF94F01EEF94F078EF94F018C734F684
:1028400019C735F60CC736F60DC737F60EC738F67A
:102850000FC739F689ECEDF007011A6FFF0E082556
:102860000601CD6FFF0E070109210601CE6FFF0E95
:1028700007010A210601CF6FFF0E07010B21060198
:10288000D06F070120EE0CF01851D9261951DA2229
:10289000CDC6DEF4CEC6DEF4CFC6DEF4D0C6DEF49E
:1028A00078EF94F007011A51D8A459EF94F05BEF38
:1028B00094F078EF94F01FA960EF94F062EF94F039
:1028C00066EF94F0040E1A6F78EF94F00601CCA333
:1028D0006CEF94F06EEF94F078EF94F007011FA185
:1028E00074EF94F076EF94F078EF94F0070E1A6F8F
:1028F00007011A51D8A47FEF94F081EF94F0AAEF6A
:1029000094F00601CCA787EF94F089EF94F08AEF5A
:1029100094F0CC8D070120EE2CF01851D9261951D6
:10292000DA22060110EE1CF0C851E126C951E2225C
:10293000DEC4E6F4DEC4E6F4DEC4E6F4DEC4E6F4A7
:1029400020EE20F0C851D926C951DA2235C7DEF46D
:1029500036C7DDF407011A51D8A4B1EF94F0B3EFF4
:1029600094F0B6EF96F018C710F519C711F535C7F2
:1029700012F536C713F54AECF5F0060120EE06F025
:10298000C851D926C951DA2210C5DEF411C5DEF4CA
:1029900012C5DEF413C5DEF41C0E07013525096EE1
:1029A000000E36210A6EDFECEFF0060120EE0AF091
:1029B000C851D926C951DA2209C5DEF40AC5DEF4A8
:1029C0000BC5DEF40CC5DEF4C8C6D9F4C9C6DAF40A
:1029D00018C7DEF419C7DDF4070120EE06F0185120
:1029E000D9261951DA22060110EE02F0C851E1266B
:1029F000C951E222DEC4E6F4DDC4E5F420EE0EF0B7
:102A0000C851D926C951DA22CCC6DFF420EE0FF026
:102A1000C851D926C951DA22DF6A20EE18F0C85110
:102A2000D926C951DA22DE6ADE6ADE6ADD6A20EE64
:102A300010F0C851D926C951DA22DE6ADE6ADE6A90
:102A4000DD6A220EC825096E000EC9210A6E000E2D
:102A50000C6E000E0B6E020E0E6E000E0D6E63EC11
:102A6000FCF00601CCAB37EF95F039EF95F0B6EFFF
:102A700096F020EE0AF0C851D926C951DA22DE506C
:102A8000DE10DE10DE10D8B448EF95F04AEF95F076
:102A9000B6EF96F020EE0AF0C851D926C951DA22D5
:102AA00010EE10F0C851E126C951E222DEC4E6F46E
:102AB000DEC4E6F4DEC4E6F4DEC4E6F4070120EE8C
:102AC0000AF01851D9261951DA22DEC4CDF6DDC438
:102AD000CEF60601CD51CF6FCE51D06FD16BD26BF8
:102AE000090ED890CF37D037D137D237E82E71EFD3
:102AF00095F0CFC600F7D0C601F7D1C602F7D2C60F
:102B000003F720EE06F0C851D926C951DA22DEC4F7
:102B100014F7DEC415F7DEC416F7DEC417F720EE8F
:102B20000AF0C851D926C951DA22DEC410F7DEC432
:102B300011F7DEC412F7DEC413F7DDEF95F0C8C657
:102B40003FF6C9C640F614C741F615C742F616C788
:102B500043F617C744F66CECAEF03FC614F740C618
:102B600015F741C616F742C617F707011751161198
:102B7000151107E1020E145DD8B0C1EF95F0C3EF57
:102B800095F0C5EF95F0020E1A6F14290AE1152988
:102B900008E1162906E11729D8A4D1EF95F0D3EF63
:102BA00095F0D5EF95F0010E1A6F0051105F0151AD
:102BB000115B0251125B0351135B07011A51D8A438
:102BC000E4EF95F0E6EF95F0F5EF95F01051005D2C
:102BD000115101591251025913510359D8A0F3EF61
:102BE00095F0F5EF95F09FEF95F0060120EE14F0CB
:102BF000C851D926C951DA2214C7DEF415C7DEF44C
:102C000016C7DEF417C7DEF407011A51D8A40BEF7C
:102C100096F00DEF96F0B6EF96F0FF0E1015060148
:102C2000CD6F010E070111150601CE6F000E0701D1
:102C300012150601CF6F000E070113150601D06FA4
:102C4000CD51CE11CF11D011D8B429EF96F02BEF82
:102C500096F0B6EF96F018C715F519C716F514C714
:102C600017F515C718F516C719F517C71AF5EFECBC
:102C7000EDF015C50CF716C50DF717C50EF718C5FD
:102C80000FF707010C510D110E110F11D8A44BEFC6
:102C900096F04DEF96F051EF96F0020E1A6FB6EFE8
:102CA00096F010C7CDF611C7CEF612C7CFF613C7F0
:102CB000D0F60A0E62EF96F00601D890D033CF33EB
:102CC000CE33CD33E82E5CEF96F007010C510601B0
:102CD000CD25D16F07010D510601CE21D26F07011D
:102CE0000E510601CF21D36F07010F510601D021EC
:102CF000D46F20EE18F0C851D926C951DA22D1C6B6
:102D0000DEF4D2C6DEF4D3C6DEF4D4C6DEF4220E80
:102D1000C825196F000EC9211A6F20EE18F0C8518E
:102D2000D926C951DA22DEC41BF6DEC41CF6DEC485
:102D30001DF6DEC41EF6000E206F010E1F6F070188
:102D400020EE01F01851D9261951DA22DF50B1ECEA
:102D5000DDF00009D8B4AFEF96F0B1EF96F0B6EF22
:102D600096F0010E07011A6FB6EF96F007011A519F
:102D7000D8B4BDEF96F0BFEF96F0C5EF96F0C8C699
:102D8000D9F4C9C6DAF4DE6ADD6A1A511200B0C598
:102D9000D9F4B1C5DAF4DEC4F6F4DDC4F7F4000EFC
:102DA000F86E0800F550250AD8A4D9EF96F0DBEFAD
:102DB00096F068EF9AF0B0C5D9F4B1C5DAF4DE2A1E
:102DC000000EDD22000E526E000E516E51C557F5F9
:102DD00053685468000E0501B86F0FEF97F05782E3
:102DE000B0C5D9F4B1C5DAF4DE2A000EDD220FEF4A
:102DF00097F0010EB86F0FEF97F0B0C5D9F4B1C5D9
:102E0000DAF4DEC4F6F4DDC4F7F4000EF86E080060
:102E1000F550300AD8B4EFEF96F0F9EF96F0B851CC
:102E2000D8B415EF97F017EF97F0FDEF96F0B0C517
:102E30000FF5B1C510F5B2C511F5B3C512F522EC09
:102E4000EDF00FC551F510C552F552BE2CEF97F0BD
:102E50002AEF97F031EF97F05780516C521ED8B09F
:102E6000522AB0C5D9F4B1C5DAF4DEC4F6F4DDC433
:102E7000F7F4000EF86E0800F5502E0AD8A443EFC0
:102E800097F045EF97F05AEF97F0B0C5D9F4B1C578
:102E9000DAF4DE2A000EDD22B0C50FF5B1C510F55B
:102EA000B2C511F5B3C512F522ECEDF00FC553F51F
:102EB00010C554F5B0C5D9F4B1C5DAF4DEC4F6F4E2
:102EC000DDC4F7F4000EF86E0800F550630AD8A4CC
:102ED0006CEF97F06EEF97F092EF97F0B0C5D9F4E2
:102EE000B1C5DAF4DE2A000EDD22B2C5D9F4B3C5CD
:102EF000DAF4DFC4B4F5020EDE26DFC4B5F5000E49
:102F0000DD22B4C5D9F4B5C5DAF4DF500501BD6FD3
:102F1000AEC513F5AFC514F5BDC515F5BAECEEF0A9
:102F20007EEF9AF0B0C5D9F4B1C5DAF4DEC4BEF5CF
:102F3000DDC4BFF5BEC5F6F4BFC5F7F4000EF86EEC
:102F40000800F5C4BDF5B1EF97F0BE4BBF2BC9EF3C
:102F500097F0690EBD6FC9EF97F0000EBD6FC9EF16
:102F600097F00501BD51580AD8B4A9EF97F03C0A73
:102F7000D8B4A9EF97F00D0AD8B4A9EF97F0050AD5
:102F8000D8B4A5EF97F0140AD8B4A9EF97F0ADEF35
:102F900097F0BEC5F6F4BFC5F7F4000EF86E080052
:102FA000F550640AD8B4D7EF97F0D9EF97F020EF37
:102FB00098F0BEC5F6F4BFC5F7F4000EF86E080031
:102FC000F550690AD8A4E7EF97F0E9EF97F049EFD9
:102FD00098F020EF98F0B2C5D9F4B3C5DAF4DFC4A5
:102FE000B4F5020EDE26DFC4B5F5000EDD22B4C551
:102FF000D9F4B5C5DAF4DEC4B9F5DDC4BAF5000E0E
:10300000BABFFF0EBB6FBC6F2BEF98F0B2C5D9F4FF
:10301000B3C5DAF4DFC4B4F5040EDE26DFC4B5F5BB
:10302000000EDD22B4C5D9F4B5C5DAF4DEC4B9F5B5
:10303000DEC4BAF5DEC4BBF5DEC4BCF52BEF98F0F8
:10304000BD51690AD8B4EBEF97F0050AD8B406EF82
:1030500098F02BEF98F0010EBE25B46F000EBF2143
:10306000B56FB0C5D9F4B1C5DAF4B4C5DEF4B5C5F1
:10307000DDF4AEC523F5AFC524F5B9C525F5BAC550
:1030800026F5BBC527F5BCC528F5ADECCAF07EEF2B
:103090009AF0BEC5F6F4BFC5F7F4000EF86E08004E
:1030A000F550780AD8B457EF98F059EF98F0A1EF9F
:1030B00098F0BEC5F6F4BFC5F7F4000EF86E080030
:1030C000F550580AD8A467EF98F069EF98F0E7EF49
:1030D00098F0A1EF98F0B2C5D9F4B3C5DAF4DFC423
:1030E000B4F5020EDE26DFC4B5F5000EDD22B4C550
:1030F000D9F4B5C5DAF4DEC4B6F5DDC4B7F5B6C5A6
:10310000B9F5B7C5BAF5BB6BBC6BACEF98F0B2C5FF
:10311000D9F4B3C5DAF4DFC4B4F5040EDE26DFC497
:10312000B5F5000EDD22B4C5D9F4B5C5DAF4DEC4B8
:10313000B9F5DEC4BAF5DEC4BBF5DEC4BCF5ACEF50
:1031400098F0BD51690AD8B46BEF98F0050AD8B46D
:1031500087EF98F0ACEF98F0010EBE25B46F000E2B
:10316000BF21B56FB0C5D9F4B1C5DAF4B4C5DEF48A
:10317000B5C5DDF4D5EF98F0AEC523F5AFC524F5A0
:10318000B9C525F5BAC526F5BBC527F5BCC528F5D3
:10319000BEC5F6F4BFC5F7F4000EF86E0800F5C41E
:1031A00029F50CECD7F07EEF9AF0BEC5F6F4BFC55A
:1031B000F7F4000EF86E0800F550580AD8B4BCEFCA
:1031C00098F0200AD8B4BCEF98F0E7EF98F0000E22
:1031D000B86FB0C5D9F4B1C5DAF4DEC4F6F4DDC415
:1031E000F7F4000EF86E0800F550730AD8A4FBEF50
:1031F00098F0FDEF98F008EF99F0B0C5D9F4B1C59B
:10320000DAF4DE2A000EDD22010EB86F5EEF99F0CF
:10321000B0C5D9F4B1C5DAF4DEC4F6F4DDC4F7F410
:10322000000EF86E0800F5506C0AD8A41AEF99F059
:103230001CEF99F05EEF99F0B0C5D9F4B1C5DAF49E
:10324000DEC4B4F5DDC4B5F5010EB427000EB52318
:10325000B4C5F6F4B5C5F7F4000EF86E0800F550E5
:103260006C0AD8A436EF99F038EF99F05EEF99F038
:10327000B0C5D9F4B1C5DAF4DEC4B4F5DDC4B5F532
:10328000020EB427000EB523B4C5F6F4B5C5F7F4A5
:10329000000EF86E0800F550730AD8A452EF99F0AA
:1032A00054EF99F05EEF99F0030EB0C5D9F4B1C5B3
:1032B000DAF4DE26000EDD2204EF99F0B851D8B41E
:1032C00064EF99F066EF99F082EF99F0AEC513F5CF
:1032D000AFC514F5B2C5D9F4B3C5DAF4DFC4B4F59B
:1032E000020EDE26DFC4B5F5000EDD22B4C5D9F42A
:1032F000B5C5DAF4DEC415F5DDC416F527ECD3F058
:103300007EEF9AF0B0C5D9F4B1C5DAF4DEC4BEF5EB
:10331000DDC4BFF5BEC5F6F4BFC5F7F4000EF86E08
:103320000800F5C4BDF5A1EF99F0BE4BBF2BB0EF7F
:1033300099F06C0EBD6FB0EF99F0000EBD6FB0EF5D
:1033400099F0BD514C0AD8B495EF99F02A0AD8B437
:1033500099EF99F00A0AD8B495EF99F09DEF99F09A
:10336000BEC5F6F4BFC5F7F4000EF86E0800F550C0
:10337000660AD8A4BEEF99F0C0EF99F038EF9AF042
:10338000F6EF99F0B2C5D9F4B3C5DAF4DFC4B4F5F9
:10339000040EDE26DFC4B5F5000EDD22B4C5D9F477
:1033A000B5C5DAF4DEC4B9F5DEC4BAF5DEC4BBF5E2
:1033B000DEC4BCF501EF9AF0B2C5D9F4B3C5DAF4B6
:1033C000DFC4B4F5040EDE26DFC4B5F5000EDD2241
:1033D000B4C5D9F4B5C5DAF4DEC4B9F5DEC4BAF5BE
:1033E000DEC4BBF5DEC4BCF501EF9AF0BD514C0A5A
:1033F000D8B4DCEF99F0200AD8B4C2EF99F001EF0D
:103400009AF0010EBE25B46F000EBF21B56FB0C596
:10341000D9F4B1C5DAF4B4C5DEF4B5C5DDF42AEFEC
:103420009AF0AEC57BF5AFC57CF5B9C57DF5BAC5DB
:103430007EF5BBC57FF5BCC580F5BEC5F6F4BFC53E
:10344000F7F4000EF86E0800F5C481F562EC85F023
:103450007EEF9AF0BEC5F6F4BFC5F7F4000EF86E25
:103460000800F550660AD8B411EF9AF038EF9AF0D8
:10347000B0C5D9F4B1C5DAF4DEC4F6F4DDC4F7F4AE
:10348000000EF86E0800F550250AD8A44AEF9AF00D
:103490004CEF9AF05FEF9AF0B0C5D9F4B1C5DAF409
:1034A000DE2A000EDD22000E0B6E250E0A6EAEC562
:1034B0000CF5AFC50DF555ECEEF07EEF9AF0B0C50A
:1034C000D9F4B1C5DAF4DE2A000EDD227EEF9AF0DF
:1034D000B0C5D9F4B1C5DAF4DEC4F6F4DDC4F7F44E
:1034E000000EF86E0800F5500A6E0B6AAEC50CF5BA
:1034F000AFC50DF555ECEEF05FEF9AF012005BC62C
:1035000076F65CC677F65FC6D9F460C6DAF4DE6A92
:10351000DD6A59C6D7F55AC6D8F5820E0501D96FAE
:10352000060EDA6F21ECE7F00601716F7151D8A435
:103530009CEF9AF09EEF9AF0AEEF9AF020EE0FF02B
:103540005951D9265A51DA22DF50716F7151D8B4CE
:10355000ACEF9AF0AEEF9AF0B1EF9AF0715108EF3C
:103560009EF020EE0EF05951D9265A51DA22DFB0E2
:10357000BCEF9AF0BEEF9AF0C1EF9AF0070E08EF99
:103580009EF020EE10F05951D9265A51DA22DEC4AD
:1035900061F6DEC462F6DEC463F6DEC464F620EED5
:1035A0000AF05951D9265A51DA22DEC465F6DEC432
:1035B00066F6DEC467F6DEC468F66151655D6D6F60
:1035C000625166596E6F635167596F6F64516859E4
:1035D000706F5D51616F5E51626F636B646B6151BF
:1035E0006D5D62516E5963516F5964517059D8B015
:1035F000FCEF9AF0FEEF9AF002EF9BF06DC65DF6DD
:103600006EC65EF65D515E11D8A409EF9BF00BEF1C
:103610009BF00DEF9BF007EF9EF020EE10F059515C
:10362000D9265A51DA22FF0EDE14616F010EDE1424
:10363000626F000EDE14636F000EDE14646F615162
:10364000621163116411D8A428EF9BF02AEF9BF05C
:103650009AEF9DF020EE10F05951D9265A51DA22F6
:10366000DEC461F6DEC462F6DEC463F6DEC464F670
:103670000A0E40EF9BF0D8906433633362336133BA
:10368000E82E3BEF9BF020EE0AF08251D9268351C1
:10369000DA22DEC465F6DDC466F6FF0E6525676FC7
:1036A000FF0E6621686F61516715786F625168156A
:1036B000796F78517911D8A460EF9BF062EF9BF09D
:1036C000DFEF9BF020EE10F05951D9265A51DA2243
:1036D000DE50DE10DE10DE10D8A471EF9BF073EF29
:1036E0009BF083EF9BF020EE06F05951D9265A51FA
:1036F000DA22DEC472F6DEC473F6DEC474F6DEC40B
:1037000075F69FEF9BF059C63FF65AC640F620EE7D
:1037100014F05951D9265A51DA22DEC441F6DEC4DA
:1037200042F6DEC443F6DEC444F66CECAEF03FC6AF
:1037300072F640C673F641C674F642C675F60601C7
:1037400075517411731107E1020E725DD8B0ABEFC1
:103750009BF0ADEF9BF0B8EF9BF020EE0FF05951CE
:10376000D9265A51DA22020EDF6E020E08EF9EF0C1
:1037700072290AE1732908E1742906E17529D8A4A0
:10378000C4EF9BF0C6EF9BF0D1EF9BF020EE0FF063
:103790005951D9265A51DA22010EDF6E010E08EF77
:1037A0009EF020EE14F05951D9265A51DA2272C6F1
:1037B000DEF473C6DEF474C6DEF475C6DEF482C6CB
:1037C00015F583C616F520EE14F05951D9265A5135
:1037D000DA22DEC417F5DEC418F5DEC419F5DEC43E
:1037E0001AF5EFECEDF015C57EF616C57FF617C598
:1037F00080F618C581F606017E517F118011811176
:10380000D8A405EF9CF007EF9CF011EF9CF020EEA0
:103810000FF05951D9265A51DA22020EDF6EB5EF58
:103820009BF078517E2779517F23000E8023000E74
:1038300081235DC661F65EC662F6090E636FD8909D
:1038400062336133632F1FEF9CF061C67AF662C664
:103850007BF67A517B11D8B430EF9CF032EF9CF0BC
:10386000FBEF9CF07A517825616F7B517921626F73
:1038700020EE0AF08251D9268351DA226151DE5CB2
:103880006251DE58D8B047EF9CF049EF9CF059EFF9
:103890009CF020EE0AF08251D9268351DA22DEC450
:1038A00061F6DDC462F67851615D7A6F79516259D3
:1038B0007B6F76C619F677C61AF67EC61BF67FC6EC
:1038C0001CF680C61DF681C61EF67AC61FF67BC69C
:1038D00020F620EE01F08251D9268351DA22DF5002
:1038E000B1ECDDF00009D8B478EF9CF07AEF9CF0F1
:1038F00085EF9CF0060120EE0FF05951D9265A5160
:10390000DA22010EDF6ECEEF9BF0060120EE0EF004
:103910005951D9265A51DA22DFAE91EF9CF093EF3C
:103920009CF0E9EF9CF07A51616F7B51626F636BA1
:10393000646B20EE18F05951D9265A51DA22DEC4B0
:1039400065F6DEC466F6DEC467F6DEC468F67E5150
:10395000655D696F7F5166596A6F805167596B6FFA
:10396000815168596C6F6151695D62516A59635147
:103970006B5964516C59D8B0C0EF9CF0C2EF9CF009
:10398000E9EF9CF020EE18F05951D9265A51DA226D
:10399000DEC461F6DDC462F67E51615F7F51625B19
:1039A000090ED89061376237E82ED1EF9CF0615153
:1039B0007625096E625177210A6E220E59250B6E0B
:1039C000000E5A210C6E020E0E6E000E0D6E89EC6A
:1039D000FAF07AC661F67BC662F6090ED890060147
:1039E00061376237E82EEEEF9CF061C67CF662C666
:1039F0007DF6E7EF9DF020EE18F05951D9265A5187
:103A0000DA227E51DE180FE17F51DE180CE1805181
:103A1000DE1809E18151DE18D8B411EF9DF013EFE3
:103A20009DF08BEF9DF020EE0EF05951D9265A51A2
:103A3000DA22DFAE1EEF9DF020EF9DF05DEF9DF0EE
:103A4000220E5925176F000E5A21186F20EE18F01C
:103A50005951D9265A51DA22DEC419F6DEC41AF6B3
:103A6000DEC41BF6DEC41CF6000E1E6F010E1D6FB9
:103A700020EE01F08251D9268351DA22DF50FDEC8D
:103A8000DCF00009D8B447EF9DF049EF9DF054EF0A
:103A90009DF0060120EE0FF05951D9265A51DA2235
:103AA000010EDF6ECEEF9BF0060120EE0EF05951B5
:103AB000D9265A51DA227F0EDF16220E5925196FA8
:103AC000000E5A211A6F7EC61BF67FC61CF680C6F2
:103AD0001DF681C61EF6000E206F010E1F6F20EE30
:103AE00001F08251D9268351DA22DF50B1ECDDF0AA
:103AF0000009D8B47EEF9DF080EF9DF08BEF9DF034
:103B0000060120EE0FF05951D9265A51DA22010E42
:103B1000DF6ECEEF9BF0060120EE18F05951D9264A
:103B20005A51DA227EC6DEF47FC6DEF480C6DEF4A9
:103B300081C6DEF420EE10F05951D9265A51DA220E
:103B4000DEC461F6DDC462F6FF0E6115636F010E1F
:103B50006215646F635100087C6F6451D8A0E82A35
:103B600002087D6F7C515D5D7D515E59D8B0BBEF21
:103B70009DF0BDEF9DF0C1EF9DF05DC67CF65EC689
:103B80007DF676C609F577C60AF520EE10F0595194
:103B9000D9265A51DA22DEC461F6DDC462F6FF0E80
:103BA0006115636F010E6215646F63515925656F6E
:103BB00064515A21666F220E65250B6E000E662138
:103BC0000C6E7CC60DF57DC60EF589ECFAF006018B
:103BD0007C515D5F7D515E5B5FC6D9F460C6DAF4EF
:103BE0007C51DE267D51DD227C5176277D51772365
:103BF00020EE10F05951D9265A51DA227C51DE2696
:103C00007D51DE22000EDE22DE2202EF9BF0000E4E
:103C1000120060C6D9F461C6DAF4DEC477F6DDC4FA
:103C200078F606016251631164116511D8A41BEF87
:103C30009EF01DEF9EF055EF9EF020EE0CF07751B8
:103C4000D9267851DA22DEC46FF6DEC470F6DEC4FF
:103C500071F6DEC472F66F51701171117211D8B421
:103C600034EF9EF036EF9EF04BEF9EF020EE14F016
:103C70007751D9267851DA22DE506F5DDE507059C7
:103C8000DE507159DE507259D8A049EF9EF04BEFCB
:103C90009EF0BAEF9EF0010E6F6F000E706F000E77
:103CA000716F000E726FBAEF9EF060C63FF661C68C
:103CB00040F662C641F663C642F664C643F665C680
:103CC00044F66CECAEF03FC679F640C67AF641C6D3
:103CD0007BF642C67CF606017C517B117A1107E126
:103CE000020E795DD8B077EF9EF079EF9EF083EF0A
:103CF0009EF0010E606F000E616F000E626F000E8D
:103D0000636FE0EFA0F079290AE17A2908E17B29C5
:103D100006E17C29D8A48FEF9EF091EF9EF09BEFF7
:103D20009EF079C660F67AC661F67BC662F67CC6FE
:103D300063F6E0EFA0F020EE14F07751D926785129
:103D4000DA22DE50795DDE507A59DE507B59DE5042
:103D50007C59D8B0AEEF9EF0B0EF9EF0B2EF9EF07F
:103D600091EF9EF062C66FF663C670F664C671F698
:103D700065C672F620EE10F07751D9267851DA2216
:103D8000DE50DE10DE10DE10D8A4C9EF9EF0CBEFBF
:103D90009EF0D5EF9EF0000E606F000E616F000E7A
:103DA000626F000E636FE0EFA0F0000E736F000E05
:103DB000746F000E756F000E766F62516F190DE112
:103DC000635170190AE16451711907E16551721963
:103DD000D8A4EDEF9EF0EFEF9EF095EF9FF0010E6F
:103DE0006F25736F000E7021746F000E7121756F57
:103DF000000E7221766F20EE14F07751D92678519B
:103E0000DA22DE50735DDE507459DE507559DE5093
:103E10007659D8A00EEF9FF010EF9FF018EF9FF0AB
:103E2000020E736F000E746F000E756F000E766FCA
:103E300060C63FF661C640F673C641F674C642F6E8
:103E400075C643F676C644F66CECAEF03FC679F61E
:103E500040C67AF641C67BF642C67CF60601790575
:103E60007A117B117C11D8B438EF9FF03AEF9FF0B4
:103E700091EF9EF079290AE17A2908E17B2906E190
:103E80007C29D8A446EF9FF048EF9FF04AEF9FF0BF
:103E900091EF9EF079517A117B117C11D8B453EFD8
:103EA0009FF055EF9FF095EF9FF020EE0CF07751CB
:103EB000D9267851DA22DEC479F6DEC47AF6DEC479
:103EC0007BF6DEC47CF67C517B117A1109E1020E8F
:103ED000795DD8A06EEF9FF070EF9FF08DEF9FF0AF
:103EE00020EE14F07751D9267851DA22DE50795D30
:103EF000DE507A59DE507B59DE507C59D8B083EFC2
:103F00009FF085EF9FF08DEF9FF079C66FF67AC630
:103F100070F67BC671F67CC672F6000E736F000EEB
:103F2000746F000E756F000E766F735174117511FA
:103F30007611D8A49EEF9FF0A0EF9FF02DEFA0F098
:103F40006FC673F670C674F671C675F672C676F6ED
:103F5000010E7327000E74237523762320EE14F0D0
:103F60007751D9267851DA22DE50735DDE507459CC
:103F7000DE507559DE507659D8A0C1EF9FF0C3EFDF
:103F80009FF0DAEF9FF0020E736F000E746F000E59
:103F9000756F000E766F72517111701107E1020E8C
:103FA0006F5DD8B0D6EF9FF0D8EF9FF0DAEF9FF0BB
:103FB000CBEF9EF060C63FF661C640F673C641F691
:103FC00074C642F675C643F676C644F66CECAEF09F
:103FD0003FC679F640C67AF641C67BF642C67CF605
:103FE000060179517A117B117C11D8A4FAEF9FF068
:103FF000FCEF9FF0FEEF9FF02DEFA0F079057A1116
:104000007B117C11D8B407EFA0F009EFA0F091EF7D
:104010009EF079290AE17A2908E17B2906E17C29C9
:10402000D8A415EFA0F017EFA0F019EFA0F091EFD2
:104030009EF06F5173190DE1705174190AE17151BD
:10404000751907E172517619D8A429EFA0F02BEF6A
:10405000A0F0A8EF9FF0CBEF9EF077C63FF678C6B2
:1040600040F673C641F674C642F675C643F676C688
:1040700044F6FF0E456FFF0E466FFF0E476FFF0EB3
:10408000486FE1ECA0F006016E6F6E51D8A44BEFC3
:10409000A0F04DEFA0F070EFA0F062516311641139
:1040A0006511D8B456EFA0F058EFA0F070EFA0F073
:1040B00077C63FF678C640F662C641F663C642F65A
:1040C00064C643F665C644F673C645F674C646F63E
:1040D00075C647F676C648F6E1ECA0F006016E6FAD
:1040E0006E51D8A476EFA0F078EFA0F0C2EFA0F068
:1040F00020EE0CF07751D9267851DA2273C6DEF41F
:1041000074C6DEF475C6DEF476C6DEF420EE10F07A
:104110007751D9267851DA2210EE14F07751E12642
:104120007851E222FE0EE6246A6FFF0EE6206B6FE6
:10413000FF0EE6206C6FFF0EE6206D6FDE506A5DAD
:10414000DE506B59DE506C59DE506D59D8A0ABEF84
:10415000A0F0ADEFA0F0B8EFA0F020EE10F0775196
:10416000D9267851DA22DE06000EDE5ADE5ADE5AF1
:1041700020EE05F07751D9267851DA22000EDB8047
:10418000D8EFA0F06E05D8B4C8EFA0F0CAEFA0F049
:10419000D4EFA0F0010E736F000E746F000E756FF8
:1041A000000E766FD8EFA0F073697469756976694F
:1041B00073C660F674C661F675C662F676C663F6B7
:1041C0001200020E06015F6F44514311421109E1D2
:1041D000020E415DD8A0EFEFA0F0F1EFA0F055EF97
:1041E000A3F020EE14F03F51D9264051DA22DE50E0
:1041F000415DDE504259DE504359DE504459D8B03B
:1042000004EFA1F006EFA1F055EFA3F042EFA3F009
:1042100041C65DF642C65EF6D8905E314A6F5D31AA
:10422000496F49515D274A515E233FC634F640C667
:1042300035F620EE20F03F51D9264051DA22DEC477
:1042400049F6DEC44AF6DEC44BF6DEC44CF65DC663
:104250004DF65EC64EF6090E4F6FD8904E334D3375
:104260004F2F2DEFA1F04D514925366F4E514A2168
:10427000376F000E4B21386F000E4C21396F89ECDF
:10428000EDF006015F6F5F51D8B449EFA1F04BEF3D
:10429000A1F04DEFA1F055EFA3F0FF0E5D15496FB2
:1042A000010E5E154A6F49513F254B6F4A5140211F
:1042B0004C6F300E4B255B6F000E4C215C6F5D4BDD
:1042C0005E2B41B166EFA1F068EFA1F06DEFA1F0B8
:1042D00045C657F6586B87EFA1F04551496F4A6BB9
:1042E000493B4A3BF00E4A1749510F0B4A13F00E57
:1042F00049175BC6D9F45CC6DAF4DF500F0B4B6F7D
:104300004C6B49514B11576F4A514C11586F5BC65A
:10431000D9F45CC6DAF457C6DFF420EE04F03F515E
:10432000D9264051DA22010EDF6E3FC634F640C670
:1043300035F620EE20F03F51D9264051DA22DEC476
:1043400049F6DEC44AF6DEC44BF6DEC44CF65DC662
:104350004DF65EC64EF6090E4F6FD8904E334D3374
:104360004F2FADEFA1F04D514925366F4E514A21E7
:10437000376F000E4B21386F000E4C21396F89ECDE
:10438000EDF006015F6F5F51D8B4C9EFA1F0CBEF3C
:10439000A1F0CDEFA1F055EFA3F0FF0E5D15496F31
:1043A000010E5E154A6F49513F254B6F4A5140211E
:1043B0004C6F300E4B255B6F000E4C215C6F41B192
:1043C000E4EFA1F0E6EFA1F004EFA2F045C649F654
:1043D00046C64AF647C64BF648C64CF64AC649F6A4
:1043E0004BC64AF64CC64BF64C6B0F0E49175BC6D4
:1043F000D9F45CC6DAF4DF50F00B49114D6F4D5122
:10440000596F5A6B1AEFA2F045C649F646C64AF6EE
:1044100047C64BF648C64CF6050E14EFA2F0D890EE
:104420004C334B334A334933E82E0FEFA2F0495156
:10443000596F5A6B5BC6D9F45CC6DAF459C6DFF41F
:1044400020EE04F03F51D9264051DA22010EDF6EF2
:1044500055EFA3F03FC634F640C635F620EE20F007
:104460003F51D9264051DA22DEC449F6DEC44AF66D
:10447000DEC44BF6DEC44CF641C64DF642C64EF6DF
:1044800043C64FF644C650F64EC64DF64FC64EF6DE
:1044900050C64FF6506B49514D25366F4A514E214B
:1044A000376F4B514F21386F4C515021396F89EC88
:1044B000EDF006015F6F5F51D8B461EFA2F063EFDA
:1044C000A2F065EFA2F055EFA3F041C649F642C64F
:1044D0004AF6D89049374A37FF0E49154B6F010EFF
:1044E0004A154C6F4B513F254D6F4C5140214E6F3B
:1044F000300E4D25096E000E4E210A6E45C60BF595
:1045000046C60CF592ECFDF0060120EE04F03F519A
:10451000D9264051DA22010EDF6E55EFA3F03FC6D7
:1045200034F640C635F620EE20F03F51D9264051F2
:10453000DA22DEC449F6DEC44AF6DEC44BF6DEC437
:104540004CF641C64DF642C64EF643C64FF644C63B
:1045500050F6080EB1EFA2F0D89050334F334E33DF
:104560004D33E82EACEFA2F049514D25366F4A513C
:104570004E21376F4B514F21386F4C515021396FBD
:1045800089ECEDF006015F6F5F51D8B4CAEFA2F07D
:10459000CCEFA2F0CEEFA2F055EFA3F041C649F662
:1045A00042C64AF6D89049374A37D89049374A37F1
:1045B000FF0E49154B6F010E4A154C6F4B513F25AD
:1045C0004D6F4C5140214E6F300E4D25096E000E3F
:1045D0004E210A6EDFECEFF0000E091406014F6F5A
:1045E000000E0A14506F000E0B14516FF00E0C14D5
:1045F000526FFF0E4515536FFF0E4615546FFF0E99
:104600004715556F0F0E4815566F4F515311456F93
:1046100050515411466F51515511476F5251561117
:10462000486F41C649F642C64AF6D89049374A37DC
:10463000D89049374A37FF0E49154B6F010E4A157E
:104640004C6F4B513F254D6F4C5140214E6F300EFA
:104650004D25096E000E4E210A6E45C60BF546C665
:104660000CF547C60DF548C60EF5EFECF6F0060161
:1046700020EE04F03F51D9264051DA22010EDF6EC0
:1046800055EFA3F03FC6D9F440C6DAF4DF50010A73
:10469000D8B408EFA1F0030AD8B42AEFA2F0010AB7
:1046A000D8B48FEFA2F055EFA3F05F5112000C5079
:1046B000800B156E0C500C24176E0BAE62EFA3F03E
:1046C00064EFA3F065EFA3F017801750D8B46BEF39
:1046D000A3F06DEFA3F082EFA3F01728D8A473EF37
:1046E000A3F075EFA3F07DEFA3F0000E096E000EAE
:1046F0000A6E000E0B6E000E0C6E0B8E000E0C6E12
:104700008AEFA3F0000E096E000E0A6E000E0B6E0B
:10471000000E0C6E1050800B166E15501618D8B483
:1047200094EFA3F096EFA3F097EFA3F0158C105041
:104730001024166E0FAE9FEFA3F0A1EFA3F0A2EF2F
:10474000A3F016801650D8B4A8EFA3F0AAEFA3F0F8
:10475000BFEFA3F01628D8A4B0EFA3F0B2EFA3F0F8
:10476000BAEFA3F0000E0D6E000E0E6E000E0F6E6F
:10477000000E106E0F8E000E106EC7EFA3F0000E2D
:104780000D6E000E0E6E000E0F6E000E106E1750A6
:10479000165CD8B0CEEFA3F0D0EFA3F0F7EFA3F004
:1047A00015ACD5EFA3F0D7EFA3F0D9EFA3F0800EAF
:1047B000151A17C518F516C517F518C516F509C544
:1047C00018F50DC509F518C50DF50AC518F50EC57E
:1047D0000AF518C50EF50BC518F50FC50BF518C56C
:1047E0000FF50CC518F510C50CF518C510F5000E21
:1047F000186E175016C511F5126A115E000E125A86
:1048000012BE0CEFA4F0125009E11A0E115CD8A0F0
:104810000CEFA4F00EEFA4F045EFA4F009500A103D
:104820000B100C10D8A417EFA4F01AEFA4F0010E8F
:104830001BEFA4F0000E186E000E096E000E0A6E3B
:10484000000E0B6E000E0C6E16C517F54EEFA4F0A1
:1048500018A02DEFA4F02FEFA4F035EFA4F0D8901E
:1048600018300109186E37EFA4F0D890183209A05B
:104870003CEFA4F03EEFA4F03FEFA4F0188E0C3410
:104880000C320B320A320932172A1650175CD8A0A4
:104890004CEFA4F04EEFA4F028EFA4F015BC53EFBA
:1048A000A4F055EFA4F095EFA4F01750D8A45BEF57
:1048B000A4F05DEFA4F067EFA4F0000E096E000E07
:1048C0000A6E000E0B6E000E0C6EB6EFA5F00D50CA
:1048D00009260E500A220F500B2210500C220CA059
:1048E00074EFA4F076EFA4F022EFA5F018A07BEF10
:1048F000A4F07DEFA4F083EFA4F0D8901830010964
:10490000186E85EFA4F0D890183209A08AEFA4F0B1
:104910008CEFA4F08DEFA4F0188E0C340C320B3217
:104920000A320932172A22EFA5F00D50095C0E5009
:104930000A580F500B580C50800A116E1050800A04
:104940001158D8B0A6EFA4F0A8EFA4F0D3EFA4F0CC
:1049500009500D5C116E0A500E58126E0B500F5814
:10496000136E0C501058146EFF0E1124096EFF0EBA
:1049700012200A6EFF0E13200B6EFF0E14200C6E19
:10498000800E151A186C1850D8A4C9EFA4F0CBEFFC
:10499000A4F0DBEFA4F0010E0926000E0A220B2280
:1049A0000C22DBEFA4F00D50095E0E500A5A0F5096
:1049B0000B5A10500C5A09500A100B100C10D8A4A6
:1049C000E4EFA4F0E6EFA4F01BEFA5F01850D8A494
:1049D000ECEFA4F0EEEFA4F01BEFA5F0000E096ED3
:1049E000000E0A6E000E0B6E000E0C6EB6EFA5F0F8
:1049F000D89009360A360B360C3618AE02EFA5F001
:104A000004EFA5F005EFA5F0098018A00AEFA5F0C6
:104A10000CEFA5F010EFA5F0D880183612EFA5F036
:104A2000D89018361750D8B418EFA5F01AEFA5F0A3
:104A30001BEFA5F017060BAE20EFA5F022EFA5F0B7
:104A4000F8EFA4F0000E166E18AE29EFA5F02BEFCC
:104A5000A5F043EFA5F018C511F57F0E1116D8B4D7
:104A600034EFA5F036EFA5F03AEFA5F0010E166E83
:104A700043EFA5F009A03FEFA5F041EFA5F043EF0C
:104A8000A5F036EFA5F01650D8B449EFA5F04BEFDE
:104A9000A5F076EFA5F0010E0926000E0A220B22E2
:104AA0000C220CA056EFA5F058EFA5F076EFA5F07C
:104AB00009C511F50AC512F50BC513F50CC514F59A
:104AC0001434143213321232113211C509F512C5E1
:104AD0000AF513C50BF514C50CF51728D8B473EFF8
:104AE000A5F075EFA5F076EFA5F0172A1728D8B432
:104AF0007CEFA5F07EEFA5F086EFA5F01750D8A4C7
:104B000084EFA5F086EFA5F098EFA5F0000E096EF2
:104B1000000E0A6E000E0B6E000E0C6E1750D8A41D
:104B200094EFA5F096EFA5F098EFA5F0000E156EA6
:104B300017A09DEFA5F09FEFA5F0A2EFA5F00B8EBB
:104B4000A3EFA5F00B9ED89017300C6E15AEABEF0F
:104B5000A5F0ADEFA5F0AEEFA5F00C8E09C509F5F7
:104B60000AC50AF50BC50BF50CC50CF51200CC0EE9
:104B70000601EC6F070EED6FE2C5EEF6E3C5EFF64A
:104B8000F091ECC6E7F5EDC6E8F5E7C509F5E8C52F
:104B90000AF523ECFDF055505610D8B4D2EFA5F02D
:104BA000D4EFA5F0DBEFA5F0320E0501C86FFC0EC7
:104BB000C96FA6ECFDF0E7C5D6F5E8C5D7F5DEC5AB
:104BC000D8F5DFC5D9F5010E0501DA6F000EDB6FF0
:104BD000B1ECE1F0E7C50DF5E8C50EF514ECFEF01B
:104BE000E7C513F5E8C514F5000E166E0A0E156E2E
:104BF00085ECF8F069ECFDF0000E306E000E316EC1
:104C0000000E326E000E336EE90E346E050E356EF8
:104C1000000E376E010E366E000E8AECF5F0555020
:104C20005610D8B416EFA6F018EFA6F022EFA6F0B3
:104C3000540E0501C86FFD0EC96FE9C5CAF5CB6BEF
:104C4000A6ECFDF00501E905D8B429EFA6F02BEF9D
:104C5000A6F041EFA6F055505610D8B432EFA6F0AA
:104C600034EFA6F03AEFA6F0770EC86FFE0EC96FCC
:104C7000A6ECFDF0000E0501DF6F010EDE6F13EFF5
:104C8000A8F0AA0E306E010E316E000E326E000ECC
:104C9000336EE90E346E050E356E000E376E050E5E
:104CA000366E080E8AECF5F055505610D8B45BEF0E
:104CB000A6F05DEFA6F073EFA6F0100E0501C86F29
:104CC000F80EC96FE9C5CAF5CB6BEAC5CCF5CD6B5B
:104CD000EBC5CEF5CF6BECC5D0F5D16BEDC5D2F5FC
:104CE000D36BA6ECFDF00501E905D8A47AEFA6F098
:104CF0007CEFA6F08CEFA6F0ECA181EFA6F083EF9D
:104D0000A6F08CEFA6F0AA0EED19D8B48AEFA6F0A3
:104D10008CEFA6F0A2EFA6F055505610D8B493EF42
:104D2000A6F095EFA6F09BEFA6F03B0EC86FFD0E28
:104D3000C96FA6ECFDF0000E0501DF6F020EDE6FFD
:104D400013EFA8F0000EE66F000EE56FE6BFB2EFBE
:104D5000A6F0B80EE55D0B0EE659D8A0B2EFA6F0AE
:104D6000B4EFA6F0B6EFA6F0EBEFA6F0000E306EB3
:104D7000000E316E000E326E000E336EE90E346E90
:104D8000050E356E000E376E010E366E370E8AEC4C
:104D9000F5F0000E306E000E316E000E326E400ED9
:104DA000336EE90E346E050E356E000E376E050E4D
:104DB000366E290E8AECF5F00501E951D8A4E3EF2F
:104DC000A6F0E5EFA6F0E7EFA6F0EBEFA6F0E54BD7
:104DD000E62BA6EFA6F055505610D8B4F2EFA6F089
:104DE000F4EFA6F0FDEFA6F0BA0EC86FFC0EC96F87
:104DF000E9C5CAF5CB6BA6ECFDF00501E951D8B4C5
:104E000004EFA7F006EFA7F01AEFA7F055505610E1
:104E1000D8B40DEFA7F00FEFA7F03AEFA6F0950E7C
:104E2000C86FFA0EC96FE9C5CAF5CB6BA6ECFDF0E9
:104E30003AEFA6F0000E306E000E316E000E326EAC
:104E4000000E336EE90E346E050E356E000E376EB1
:104E5000050E366E3A0E8AECF5F055505610D8B461
:104E600034EFA7F036EFA7F04CEFA7F0B50E050131
:104E7000C86FF70EC96FE9C5CAF5CB6BEAC5CCF5AB
:104E8000CD6BEBC5CEF5CF6BECC5D0F5D16BEDC5D9
:104E9000D2F5D36BA6ECFDF0E9C5E4F5FE0E0501F5
:104EA000E417D8B456EFA7F058EFA7F071EFA7F0CA
:104EB00055505610D8B45FEFA7F061EFA7F06AEF36
:104EC000A7F04E0EC86FFA0EC96FE9C5CAF5CB6BD5
:104ED000A6ECFDF0000E0501DF6F030EDE6F13EF91
:104EE000A8F0EABD76EFA7F078EFA7F089EFA7F07A
:104EF00055505610D8B47FEFA7F081EFA7F09BEF85
:104F0000A6F0ED0EC86FF80EC96FA6ECFDF09BEF92
:104F1000A6F055505610D8B490EFA7F092EFA7F036
:104F200098EFA7F0B90EC86FF90EC96FA6ECFDF0A7
:104F30000501EABF9EEFA7F0A0EFA7F0B1EFA7F041
:104F400055505610D8B4A7EFA7F0A9EFA7F06AEF15
:104F5000A7F0420EC86FF90EC96FA6ECFDF06AEF1C
:104F6000A7F055505610D8B4B8EFA7F0BAEFA7F095
:104F7000C0EFA7F09C0EC86FFE0EC96FA6ECFDF047
:104F8000010E306E000E316E000E326E000E336E6A
:104F9000E90E346E050E356E000E376E010E366E5C
:104FA0003B0E8AECF5F00501E951D8B4DAEFA7F031
:104FB000DCEFA7F0F0EFA7F055505610D8B4E3EFB0
:104FC000A7F0E5EFA7F06AEFA7F0FD0EC86FFA0EA5
