:0400000081EF00F09C
:10000800397F397F397F397F4000397F4000397F18
:10001800397F397F397F397F397F397F397F397F18
:10002800397F400040004000397F397F397F397F70
:10003800397F397F397F397F397F397F397F5A7BDB
:10004800647D397F397F397F40004000397F397FAF
:10005800397F397F397F4000397F397F397F397F50
:10006800397F397F397F397F397F397F397F397FC8
:10007800397F397F397F397F4000397F397F397F30
:10008800397F397F397F397F397F397F397F397FA8
:100098008E7B397F397F397F4000397F40004000AF
:1000A800397F397F397F397F397F397F397F397F88
:1000B800397F397F397F397F397F397F397F397F78
:1000C800397F397F397F397F397F397F397F397F68
:1000D800397F397F397F397F397F397F397F397F58
:1000E8004000397F397F397F4000400040004000A0
:0E00F800397F397F397F397FFF00C3EFEAF08F
:10F60000001F001C001F001E001F001E001F001F07
:10F61000001E001F001E001F00819FE0FC407E8036
:10F62000FC0000534420436172643A2072656164B7
:10F630003531323A20435243206572726F7220286E
:10F640002530347820213D20253034782C207265F7
:10F650007472793D2564290A0D00496D6167652042
:10F6600066696C652025732F445249564525632EE3
:10F6700044534B2069732061737369676E6564201E
:10F68000746F2064726976652025630A0D006469D1
:10F69000736B5F696F63746C3A20706472763D259A
:10F6A000642C20636D643D25642C20627566663D84
:10F6B0003078256C783A207265733D25640A0D0018
:10F6C000534420436172643A20207265616435318D
:10F6D000323A20616464723D25386C642C206F6678
:10F6E00066733D25642C20636F756E743D25640A36
:10F6F0000D00534420436172643A20777269746547
:10F700003531323A20616464723D25386C642C20B6
:10F710006F6666733D25642C20636F756E743D259E
:10F72000640A0D00534420436172643A2077726981
:10F7300074653531323A206661696C656420746F96
:10F740002067657420746F6B656E2C2074696D651D
:10F750006F75740A0D005573652050574D31202088
:10F76000252E32664D487A284475747920252E312D
:10F770006625252920666F72203830383820636C62
:10F780006F636B0A0D00534420436172643A207723
:10F79000726974653531323A2074696D656F7574BC
:10F7A0002C20726573706F6E73652069732025302D
:10F7B00032780A0D00534420436172643A20434D6D
:10F7C0004435382C2052333D2530327820253032D4
:10F7D0007820253032782025303278202530327854
:10F7E0000A0D0025733A204552524F523A20636C5D
:10F7F0006F636B20737065656420256420697320D6
:10F800006E6F7420737570706F727465640A0D008A
:10F81000534420436172643A20434D44382C2052B3
:10F82000373D253032782025303278202530327827
:10F83000202530327820253032780A0D0064697333
:10F840006B5F696F63746C3A20706472763D2564F7
:10F850002C20636D643D25643A204E6F74206861EE
:10F860006E646C65642E0A0D006469736B5F72656B
:10F8700061643A2020706472763D25642C207365A3
:10F8800063746F723D256C642C20636F756E743DDC
:10F8900025640A0D006469736B5F77726974653A59
:10F8A00020706472763D25642C20736563746F72DA
:10F8B0003D256C642C20636F756E743D25640A0DC4
:10F8C00000536574757020445331333037205254DF
:10F8D00043206D6F64756C6520666F7220636C6F7A
:10F8E000636B206465766963652E0D0A00534420BE
:10F8F000436172643A204343532028436172642079
:10F9000043617061636974792053746174757329FC
:10F9100020697320300A0D00534420436172643A19
:10F920002077726974653531323A2043524320653D
:10F9300072726F72202872657472793D2564290A8B
:10F940000D00534420436172643A20436172642085
:10F95000706F776572207570207374617475732091
:10F9600062697320697320300A0D0072656164203A
:10F970004D425220706172746974696F6E207461B7
:10F98000626C6520617420736563746F7220300A45
:10F990000D00536574757020465432303058442041
:10F9A0006D6F64756C6520666F72204155582064D8
:10F9B00065766963652E0D0A0053442043617264C5
:10F9C0003A2053444843206F7220534458432063E5
:10F9D0006172642064657465637465640A0D002552
:10F9E000733A204552524F523A206D6F646520257C
:10F9F00064206973206E6F7420737570706F7274F9
:10FA000065640A0D002A2A2A20415558206465762B
:10FA10006963652063616E6E6F7420737570706FBB
:10FA200072742E202A2A2A0D0A0053442043617240
:10FA3000643A20696E697469616C697A65202E2E5A
:10FA40002E207375636365656465640A0D00534415
:10FA500020436172643A20756E65787065637465E1
:10FA60006420726573706F6E736520253032780A7A
:10FA70000D002573204C6F616420416472203D208D
:10FA80002530366C782C2053697A65203D2025304E
:10FA900034780D0A00534420436172643A20414394
:10FAA0004D44343120726573706F6E7365206973D5
:10FAB00020253032780A0D00534420436172643AA5
:10FAC0002077726974653531323A20746F6B656ED8
:10FAD00020697320253032780A0D004D656D6F72F4
:10FAE0007920303030303030202D202530366C58A1
:10FAF00048202564204B42204F4B0D0A00534420E0
:10FB0000436172643A20434D443539207265737005
:10FB10006F6E736520697320253032780A0D00708E
:10FB20006172746974696F6E20737461727473208A
:10FB3000617420736563746F7220256C640A0D0014
:10FB400053657475702074696D65723020666F72CC
:10FB500020636C6F636B206465766963652E0D0AA4
:10FB600000665F777269746528293A204552524FC2
:10FB700052207265733D25642C206E3D25640A0D6C
:10FB800000665F7265616428293A204552524F52DF
:10FB9000207265733D25642C206E3D25640A0D009E
:10FBA000536574757020554152543120666F722030
:10FBB000415558206465766963652E0D0A005365CA
:10FBC0006C6563742843504D203D20312C204D53EB
:10FBD000444F53203D203229203A20006661696C51
:10FBE000656420746F20777269746520736563742F
:10FBF0006F7220256C640A0D00554E4B4E4F574EC8
:10FC000020444556494345203A20434D4428253059
:10FC10003278290D0A006661696C656420746F2072
:10FC20007265616420736563746F7220256C640A69
:10FC30000D000A0D534420436172643A20696E69D5
:10FC40007469616C697A65202E2E2E0A0D00554E5E
:10FC50004B4E4F574E20756E696D6F6E20434D446D
:10FC60002825303278290D0A0050726F6772616D55
:10FC70002046696C65204C6F6164204572726F721A
:10FC80002E0D0A004661696C656420746F206F70E8
:10FC9000656E20534420436172642E2E0A0D004687
:10FCA00061696C656420746F206D6F756E7420538C
:10FCB0004420436172642E0A0D0053442043617254
:10FCC000643A2041434D4434312C2052313D25309B
:10FCD00032780A0D006661696C656420746F207269
:10FCE00065616420736563746F7220300A0D000AC9
:10FCF0004D656D6F7279206572726F72206174202C
:10FD00002530366C58480A0D006469736B5F696E64
:10FD1000697469616C697A65282564292E2E2E0A1A
:10FD20000D0046543230305844205553422D554131
:10FD30005254206D6F64756C6520005344204361FC
:10FD400072643A206E6F74207375706F7072746590
:10FD5000640A0D00534420436172643A20434D44C9
:10FD6000302C2052313D253032780A0D00202020E1
:10FD70002020202020202020202020202020202083
:10FD8000202020200D007761697420666F7220703A
:10FD9000726F6772616D6D6572202E2E2E0D0025BB
:10FDA000732535337320434845434B53554D3A2013
:10FDB000253032780A0D004D656D6F727920303034
:10FDC00030303030202D202530366C58480D004919
:10FDD000324320627573206973206E6F74206578DA
:10FDE0006973742E0A0D00706879736963616C2001
:10FDF00064726976657220213D20300A0D00665FCD
:10FE00006C7365656B28293A204552524F52202564
:10FE1000640A0D006E6F20464154333220706172C7
:10FE2000746974696F6E0A0D00665F73796E63287A
:10FE3000293A204552524F522025640A0D006E6F18
:10FE4000204D4252207369676E61747572650A0DA8
:10FE5000004E6F204F53206469726563746F72792E
:10FE60002E0A0D0044533133303720525443206D55
:10FE70006F64756C652000534420436172643A20BE
:10FE800074696D656F75740A0D006E6F2076616C14
:10FE9000696420766F6C756D650A0D0053442043CC
:10FEA0006172643A2072656164792E0A0D005350C4
:10FEB000495F53445F636F6E666967757265004E94
:10FEC0006F20626F6F74206469736B2E0A0D0025BA
:10FED000732F554D4F4E5F43504D2E42494E0025D6
:10FEE000732F4343505F42444F532E42494E0025E7
:10FEF000732F554D4F4E5F444F532E42494E002AAB
:10FF00002B2C3A3B3C3D3E5B5D7C223F7F002573C2
:10FF10002053656C65637465642E0A0D0025732F8C
:10FF2000445249564525632E44534B004E6F20538F
:10FF30004420436172643F0A0D0025732F434249F8
:10FF40004F532E42494E0025732F4D53444F532E8D
:10FF5000535953006E6F742065786973742E0D0ABF
:10FF600000426F6172643A2025730A0D0044657483
:10FF70006563742025730A0D00454D5538303838B7
:10FF80005F52414D0044657465637465642E0D0ACB
:10FF90000025732F494F2E53595300464154333295
:10FFA0002020200025732530366C783A0043504DD0
:10FFB0004449534B5300444F534449534B5300253A
:10FFC00073253034783A00286E756C6C2900202532
:10FFD000303278006661743A20006275663A20001B
:10FFE00052443A200057523A2000303A2F2F005303
:10FFF000443A2000696E66006E616E002573000051
:020000040001F9
:1000000096C6D9F497C6DAF4DE6ADD6A94C609F5B5
:1000100095C60AF581ECD1F009C5A5F60AC5A6F684
:100020000601A6BF18EF80F016EF80F01BEF80F0FE
:100030000B0E61EF85F0D890A535D96EA635DA6E36
:10004000ED0ED926060EDA22DEC4C0F6DDC4C1F6F6
:10005000C051C111D8A42FEF80F031EF80F034EF00
:1000600080F00C0E61EF85F096C6D9F497C6DAF4ED
:10007000C0C6DEF4C1C6DDF49891C0C6D9F4C1C6CD
:10008000DAF4DF50D8B447EF80F049EF80F070EF3A
:1000900080F020EE01F0C051D926C151DA22DF50A4
:1000A000A5ECF4F00601B56FB5B159EF80F05BEF48
:1000B00080F070EF80F09851D8B461EF80F063EF7A
:1000C00080F06DEF80F0B5A568EF80F06AEF80F00A
:1000D0006DEF80F00A0E61EF85F0000E61EF85F0A4
:1000E000C0C6D9F4C1C6DAF4DF6A20EE01F0C0510F
:1000F000D926C151DA22DF5093ECBAF00601B56F70
:10010000B5A185EF80F087EF80F08AEF80F0030ED5
:1001100061EF85F09851D8B490EF80F092EF80F0C5
:100120009BEF80F0B5A597EF80F099EF80F09BEF03
:1001300080F06AEF80F0C0C647F6C1C648F6000EF0
:100140004A6F000E496FB1ECC8F047C6BEF648C60C
:10015000BFF6040E0601BE19BF11D8A4B2EF80F09D
:10016000B4EF80F0B7EF80F0010E61EF85F0BF5182
:1001700009E1020EBE5DD8A0C0EF80F0C2EF80F0B2
:10018000C5EF80F00D0E61EF85F020EE2CF0C05130
:10019000D926C151DA22DEC4B1F6DEC4B2F6DEC41D
:1001A000B3F6DEC4B4F63B0EC025096E000EC121C5
:1001B0000A6EF3ECFBF0020E0A180910D8B4E3EF54
:1001C00080F0E5EF80F0E7EF80F0C2EF80F0460EC0
:1001D0000601C025096E000EC1210A6EF3ECFBF08A
:1001E00009C5BAF60AC5BBF60601BC6BBD6BBA51B0
:1001F000BB11BC11BD11D8A400EF81F002EF81F05A
:1002000012EF81F0540EC025096E000EC1210A6E56
:1002100027ECEFF009C5BAF60AC5BBF60BC5BCF66C
:100220000CC5BDF6060120EE18F0C051D926C1510B
:10023000DA22BAC6DEF4BBC6DEF4BCC6DEF4BDC646
:10024000DEF420EE40F0C051D926C151DA2210EE82
:1002500003F0C051E126C151E222DFC4E7F420EEF1
:1002600003F0C051D926C151DA22DE04D8B43BEFE5
:1002700081F03DEF81F04EEF81F020EE03F0C051B0
:10028000D926C151DA22020EDE18D8B44AEF81F025
:100290004CEF81F04EEF81F0C2EF80F0BAC609F565
:1002A000BBC60AF5BCC60BF5BDC60CF520EE03F0C7
:1002B000C051D926C151DA22DF50996F99510D6E84
:1002C0000E6A0F6A106A7EECF6F009C5BAF60AC526
:1002D000BBF60BC5BCF60CC5BDF6060120EE3DF025
:1002E000C051D926C151DA22DF50996F9A6B20EEA6
:1002F0000AF0C051D926C151DA2299C6DEF49AC655
:10030000DDF420EE0AF0C051D926C151DA22DE50C8
:10031000DE10D8B48EEF81F090EF81F0C2EF80F064
:1003200020EE0AF0C051D926C151DA22DEC499F676
:10033000DDC49AF620EE0AF0C051D926C151DA2266
:10034000DEC49BF6DDC49CF6FF0E9B259D6FFF0E61
:100350009C219E6F99519D159F6F9A519E15A06F7C
:100360009F51A011D8B4B7EF81F0B9EF81F0BBEF86
:1003700081F0C2EF80F0410EC025096E000EC12150
:100380000A6EF3ECFBF0060120EE08F0C051D9260E
:10039000C151DA2209C5DEF40AC5DDF420EE08F009
:1003A000C051D926C151DA22DEC499F6DDC49AF6CD
:1003B0000F0E9917000E9A1799519A11D8B4E3EFBE
:1003C00081F0E5EF81F0E7EF81F0C2EF80F0430EBE
:1003D000C025096E000EC1210A6EF3ECFBF009C5C1
:1003E000ADF60AC5AEF60601AF6BB06BAD51AE11FE
:1003F000AF11B011D8A4FFEF81F001EF82F011EF3F
:1004000082F0500EC025096E000EC1210A6E27EC45
:10041000EFF009C5ADF60AC5AEF60BC5AFF60CC5D3
:10042000B0F63E0E0601C025096E000EC1210A6E0F
:10043000F3ECFBF009C5ABF60AC5ACF60601AB510F
:10044000AC11D8A426EF82F028EF82F02AEF82F0D8
:10045000C2EF80F020EE08F0C051D926C151DA2257
:10046000DEC499F6DDC49AF6040E9B6FD8909A33D9
:1004700099339B2F36EF82F0AB5199259C6FAC518D
:100480009A219D6F9E6BD8B09E2B9F6BBA519C2575
:10049000A76FBB519D21A86FBC519E21A96FBD5173
:1004A0009F21AA6FA751AD5DA851AE59A951AF596F
:1004B000AA51B059D8B05FEF82F061EF82F063EFDC
:1004C00082F0C2EF80F0A751AD5D096EA851AE5920
:1004D0000A6EA951AF590B6EAA51B0590C6E20EE9D
:1004E0000AF0C051D926C151DA22DEC499F6DDC422
:1004F0009AF699C60DF59AC60EF50F6A106A85EC44
:10050000F1F009C5B6F60AC5B7F60BC5B8F60CC5C5
:10051000B9F60601B651B711B811B911D8A493EFC5
:1005200082F095EF82F097EF82F0C2EF80F0000E3C
:10053000BF6F000EBE6FF60EB65DFF0EB759FF0E11
:10054000B8590F0EB959D8B0A8EF82F0AAEF82F0CF
:10055000AEEF82F0000EBF6F030EBE6FB951B8113F
:1005600009E1F60EB65DFF0EB759D8B0BAEF82F0CA
:10057000BCEF82F0C0EF82F0000EBF6F020EBE6FC4
:10058000B951B81109E1F60EB65D0F0EB759D8B0E2
:10059000CCEF82F0CEEF82F0D2EF82F0000EBF6F90
:1005A000010EBE6FBE51BF11D8A4D9EF82F0DBEFB0
:1005B00082F0DDEF82F0C2EF80F0020EB625996F77
:1005C000000EB7219A6F000EB8219B6F000EB92163
:1005D0009C6F20EE14F0C051D926C151DA2299C681
:1005E000DEF49AC6DEF49BC6DEF49CC6DEF420EE92
:1005F0001CF0C051D926C151DA22B1C6DEF4B2C610
:10060000DEF4B3C6DEF4B4C6DEF4AB51B125996FA7
:10061000AC51B2219A6F000EB3219B6F000EB42132
:100620009C6F20EE20F0C051D926C151DA2299C624
:10063000DEF49AC6DEF49BC6DEF49CC6DEF4A75157
:10064000B125996FA851B2219A6FA951B3219B6F1F
:10065000AA51B4219C6F20EE28F0C051D926C15177
:10066000DA2299C6DEF49AC6DEF49BC6DEF49CC696
:10067000DEF4030EBE19BF11D8A441EF83F043EF9F
:1006800083F0A0EF83F05A0EC025096E000EC12141
:100690000A6EF3ECFBF009500A10D8B452EF83F065
:1006A00054EF83F056EF83F0C2EF80F0060120EEA6
:1006B00008F0C051D926C151DA22DE50DE10D8B47C
:1006C00064EF83F066EF83F068EF83F0C2EF80F0B1
:1006D0005C0EC025096E000EC1210A6E27ECEFF0FA
:1006E000060120EE24F0C051D926C151DA2209C5F5
:1006F000DEF40AC5DEF40BC5DEF40CC5DEF420EE34
:1007000014F0C051D926C151DA22DEC499F6DEC4F4
:100710009AF6DEC49BF6DEC49CF6020ED89099379A
:100720009A379B379C37E82E8EEF83F099C6A1F657
:100730009AC6A2F69BC6A3F69CC6A4F640EF84F028
:1007400020EE08F0C051D926C151DA22DE50DE1069
:10075000D8A4ADEF83F0AFEF83F0B1EF83F0C2EF39
:1007600080F020EE20F0C051D926C151DA22DEC43B
:1007700099F6DEC49AF6DEC49BF6DEC49CF6BA5146
:1007800099259D6FBB519A219E6FBC519B219F6FF4
:10079000BD519C21A06F20EE24F0C051D926C1513B
:1007A000DA229DC6DEF49EC6DEF49FC6DEF4A0C645
:1007B000DEF4020EBE19BF11D8B4E1EF83F0E3EF0F
:1007C00083F029EF84F020EE14F0C051D926C151F6
:1007D000DA22DEC499F6DEC49AF6DEC49BF6DEC4E5
:1007E0009CF6010E99159D6F000E9A159E6F000ED6
:1007F0009B159F6F000E9C15A06F20EE14F0C0514A
:10080000D926C151DA22DEC409F5DEC40AF5DEC4F8
:100810000BF5DEC40CF5030E0D6E000E0E6E000E11
:100820000F6E000E106E7EECF6F0D8900C320B328C
:100830000A32093206019D510924A16F9E510A20F6
:10084000A26F9F510B20A36FA0510C20A46F40EF0B
:1008500084F020EE14F0C051D926C151DA22DEC452
:1008600099F6DEC49AF6DEC49BF6DEC49CF6D890F8
:100870009935A16F9A35A26F9B35A36F9C35A46FF4
:10088000FF0EA125996F010EA2219A6F000EA321E0
:100890009B6F000EA4219C6F0A0E54EF84F0D89039
:1008A0009C339B339A339933E82E4FEF84F020EE3C
:1008B00018F0C051D926C151DA229951DE5C9A5103
:1008C000DE589B51DE589C51DE58D8B06AEF84F058
:1008D0006CEF84F06EEF84F0C2EF80F020EE10F049
:1008E000C051D926C151DA22FF0EDE6EFF0EDE6E38
:1008F000FF0EDE6EFF0EDD6EDD52DD5210EE0CF0EF
:10090000C051E126C151E222DEC4E6F4DEC4E6F4C1
:10091000DEC4E6F4DEC4E6F420EE05F0C051D926CC
:10092000C151DA22800EDF6E030EBE19BF11D8A4AA
:100930009CEF84F09EEF84F04BEF85F0600EC025B5
:10094000096E000EC1210A6EF3ECFBF009040A10D7
:10095000D8A4ADEF84F0AFEF84F04BEF85F0C0C6C4
:100960002EF6C1C62FF6010E0601B125306F000E1E
:10097000B221316F000EB321326F000EB421336FFC
:1009800038ECEDF00009D8A4C8EF84F0CAEF84F089
:100990004BEF85F0060120EE05F0C051D926C1517C
:1009A000DA22DF6A2E0EC025096E020EC1210A6E00
:1009B000F3ECFBF0550E091807E1AA0E0A18D8A4AB
:1009C000E4EF84F0E6EF84F04BEF85F0300E0601A3
:1009D000C025096E000EC1210A6E27ECEFF0520E01
:1009E00009180DE1520E0A180AE1610E0B1807E111
:1009F000410E0C18D8A4FFEF84F001EF85F04BEF07
:100A000085F0140E0601C025096E020EC1210A6E82
:100A100027ECEFF0720E09180DE1720E0A180AE1C8
:100A2000410E0B1807E1610E0C18D8A41AEF85F0DF
:100A30001CEF85F04BEF85F0180E0601C025096EFE
:100A4000020EC1210A6E27ECEFF0060120EE10F035
:100A5000C051D926C151DA2209C5DEF40AC5DEF437
:100A60000BC5DEF40CC5DEF41C0EC025096E020EAB
:100A7000C1210A6E27ECEFF0060120EE0CF0C05108
:100A8000D926C151DA2209C5DEF40AC5DEF40BC548
:100A9000DEF40CC5DEF4C0C6D9F4C1C6DAF4BEC6B5
:100AA000DFF407018C4B8D2B060120EE06F0C051C0
:100AB000D926C151DA228CC7DEF48DC7DDF46DEF83
:100AC00080F0120005019E6B76C59FF577C5A0F5F5
:100AD00078C5A1F579C5A2F5A2BF73EF85F071EFD6
:100AE00085F087EF85F0010E9E6F9FC509F5A0C5C3
:100AF0000AF5A1C50BF5A2C50CF5D7ECFBF009C5AD
:100B00009FF50AC5A0F50BC5A1F50CC5A2F5000E11
:100B10000501A46F000EA36F51C592F552C593F560
:100B20009E51D8B496EF85F098EF85F0ACEF85F044
:100B30009E51D8A49EEF85F0A0EF85F0A6EF85F03A
:100B4000000E846F2B0E836FAAEF85F0000E846F6A
:100B50002D0E836F83C59EF59FC509F5A0C50AF5C7
:100B6000A1C50BF5A2C50CF512ECE7F009040A10BB
:100B7000D8A4BDEF85F0BFEF85F0F2EF85F0050159
:100B80009E51D8B4C6EF85F0C8EF85F0D1EF85F05F
:100B90009EC540F89207D8A09307000EA46F010EDF
:100BA000A36F400EA325096E080EA4210A6EF40E51
:100BB0000B6EFF0E0C6E2CECFBF00501FD0E922768
:100BC000FF0E932374C51AF575C51BF5400E1C6EF8
:100BD000080E1D6E92C51EF593C51FF5D7ECF1F0FA
:100BE00091EF8AF09FC509F5A0C50AF5A1C50BF5DF
:100BF000A2C50CF512ECE7F009500A10D8A403EFD7
:100C000086F005EF86F025EF86F005019E51D8B4F9
:100C10000CEF86F00EEF86F017EF86F09EC540F8D9
:100C20009207D8A09307000EA46F010EA36F400E89
:100C3000A325096E080EA4210A6EF80E0B6EFF0E96
:100C40000C6E2CECFBF0DDEF85F0000E0501A56FBE
:100C5000000EA66F800EA76F3F0EA86F000E8D6F5F
:100C6000000E8C6F9FC509F5A0C50AF5A1C50BF54F
:100C7000A2C50CF5000E0D6E000E0E6E000E0F6E6E
:100C8000000E106E8AECF0F0D8B049EF86F04BEF12
:100C900086F02AEF87F058EF86F08EC5A5F58FC550
:100CA000A6F590C5A7F591C5A8F505018C4B8D2B30
:100CB000A5C51EF5A6C51FF5A7C520F5A8C521F534
:100CC000000E226E000E236E200E246E410E256E45
:100CD0005EECACF01EC58EF51FC58FF520C590F5F6
:100CE00021C591F505018E519F5D096E8F51A05967
:100CF0000A6E9051A1590B6E9151A2590C6EF1ECF4
:100D0000F8F00CBE8FEF86F00C500B100A1009E1C2
:100D1000020E095CD8A08FEF86F091EF86F04DEFC0
:100D200086F08EC537F58FC538F590C539F591C574
:100D30003AF59FC53BF5A0C53CF5A1C53DF5A2C55B
:100D40003EF510ECE6F0D8A0A8EF86F0AAEF86F00A
:100D50004DEF86F00501A5519F5D096EA651A05982
:100D60000A6EA751A1590B6EA851A2590C6EF1EC55
:100D7000F8F00CBEC9EF86F00C500B100A1007E11A
:100D8000020E095CD8B0C7EF86F0C9EF86F011EF0C
:100D900087F0A5C59FF5A6C5A0F5A7C5A1F5A8C56F
:100DA000A2F52AEF87F0A5C537F5A6C538F5A7C582
:100DB00039F5A8C53AF5000E3B6E000E3C6E200ECC
:100DC0003D6E410E3E6EFCECB3F037C5A5F538C55F
:100DD000A6F539C5A7F53AC5A8F505018C07D8A031
:100DE0008D07A5519F5D096EA651A0590A6EA751A6
:100DF000A1590B6EA851A2590C6EF1ECF8F00CBE83
:100E00000FEF87F00C500B100A1007E1020E095C7F
:100E1000D8B00DEF87F00FEF87F011EF87F0C9EF33
:100E200086F09FC537F5A0C538F5A1C539F5A2C52F
:100E30003AF5A5C53BF5A6C53CF5A7C53DF5A8C542
:100E40003EF510ECE6F0D8A028EF87F02AEF87F007
:100E5000D3EF86F07AC586F586C587F554BE33EFA5
:100E600087F035EF87F03BEF87F053C57FF554C52A
:100E700080F540EF87F0000E0501806F060E7F6F52
:100E80007FC58AF580C58BF505018A4B8B2B660ED5
:100E90008719D8A44EEF87F050EF87F070EF87F0F6
:100EA0008DBF57EF87F055EF87F063EF87F0000EA7
:100EB000A56F000EA66F800EA76F3F0EA86F000EE5
:100EC0008D6F000E8C6F670E8619D8B46AEF87F0AD
:100ED0006CEF87F070EF87F08C518A278D518B2350
:100EE000000E9D6F000E9C6F9FC594F5A0C595F5F3
:100EF000A1C596F5A2C597F5A5C58EF5A6C58FF532
:100F0000A7C590F5A8C591F501EF88F094C537F510
:100F100095C538F596C539F597C53AF5A5C53BF59C
:100F2000A6C53CF5A7C53DF5A8C53EF5FCECB3F05C
:100F300037C560F538C561F539C562F53AC563F561
:100F400099ECC3F060C598F561C599F562C59AF54D
:100F500063C59BF598C509F599C50AF59AC50BF5C2
:100F60009BC50CF58DECE5F009C588F50AC589F53A
:100F700094C537F595C538F596C539F597C53AF551
:100F800098C522F599C523F59AC524F59BC525F585
:100F9000A5C51EF5A6C51FF5A7C520F5A8C521F551
:100FA0005EECACF01EC53BF51FC53CF520C53DF51C
:100FB00021C53EF581ECFAF037C594F538C595F5B5
:100FC00039C596F53AC597F5A5C537F5A6C538F5DF
:100FD000A7C539F5A8C53AF5000E3B6E000E3C6E6C
:100FE000200E3D6E410E3E6EFCECB3F037C5A5F50C
:100FF00038C5A6F539C5A7F53AC5A8F505019C4B36
:101000009D2B8A519C5D9D51800A7B6F8B51800A7C
:101010007B59D8A00EEF88F010EF88F086EF87F0AC
:10102000A5C51EF5A6C51FF5A7C520F5A8C521F5C0
:10103000000E226E000E236EA00E246E400E256E52
:101040005EECACF01EC598F51FC599F520C59AF564
:1010500021C59BF594C537F595C538F596C539F585
:1010600097C53AF598C53BF599C53CF59AC53DF548
:101070009BC53EF510ECE6F0D8B041EF88F043EFA9
:1010800088F04EEF88F0000E0501986F000E996F02
:10109000000E9A6F000E9B6F77EF88F094C509F5EC
:1010A00095C50AF596C50BF597C50CF598C50DF5D0
:1010B00099C50EF59AC50FF59BC510F58AECF0F0B1
:1010C000D8A065EF88F067EF88F077EF88F005012A
:1010D00088B16DEF88F06FEF88F077EF88F0000E41
:1010E000986F000E996F000E9A6F000E9B6F9FC550
:1010F00009F5A0C50AF5A1C50BF5A2C50CF598C563
:101100000DF599C50EF59AC50FF59BC510F5C7EC01
:10111000A5F009C594F50AC595F50BC596F50CC55E
:1011200097F594C537F595C538F596C539F597C542
:101130003AF5000E226E000E236E200E246E410E34
:10114000256E8EC51EF58FC51FF590C520F591C57E
:1011500021F55EECACF01EC53BF51FC53CF520C586
:101160003DF521C53EF510ECE6F0D8A0BAEF88F0C9
:10117000BCEF88F0E5EF88F005018C4B8D2B8EC518
:101180001EF58FC51FF590C520F591C521F5000E00
:10119000226E000E236E200E246E410E256E5EEC34
:1011A000ACF01EC58EF51FC58FF520C590F521C585
:1011B00091F5660E05018719D8A4E1EF88F0E3EFF9
:1011C00088F0E5EF88F08A4B8B2B8EC5A5F58FC58F
:1011D000A6F590C5A7F591C5A8F58CC57DF58DC57B
:1011E0007EF50501856B000E826F000E816F000E8B
:1011F0009D6F000E9C6FE2EF89F094C537F595C5A1
:1012000038F596C539F597C53AF5A5C53BF5A6C598
:101210003CF5A7C53DF5A8C53EF5FCECB3F037C5D8
:1012200060F538C561F539C562F53AC563F599ECE5
:10123000C3F060C598F561C599F562C59AF563C5B7
:101240009BF598C509F599C50AF59AC50BF59BC597
:101250000CF58DECE5F00ABE39EF89F00A5007E194
:101260000A0E095CD8B037EF89F039EF89F049EF01
:1012700089F098C509F599C50AF59AC50BF59BC57E
:101280000CF58DECE5F009C588F50AC589F54EEF3A
:1012900089F0000E0501896F090E886F05018551DF
:1012A000D8A455EF89F057EF89F07FEF89F07EBF22
:1012B0005EEF89F05CEF89F07FEF89F0400EA325A7
:1012C000D96E080EA421DA6E2E0EDF6EA34BA42B6E
:1012D0009207D8A09307010E856F7FEF89F0400E2B
:1012E000A325D96E080EA421DA6E300EDF6EA34B53
:1012F000A42B9207D8A093078107D8A08207815119
:101300008211D8A486EF89F088EF89F06FEF89F019
:10131000400EA325D96E080EA421DA6E8851300F35
:10132000DF6EA34BA42B9207D8A0930794C537F583
:1013300095C538F596C539F597C53AF598C522F59E
:1013400099C523F59AC524F59BC525F5A5C51EF5B8
:10135000A6C51FF5A7C520F5A8C521F55EECACF024
:101360001EC53BF51FC53CF520C53DF521C53EF525
:1013700081ECFAF037C594F538C595F539C596F581
:101380003AC597F5A5C537F5A6C538F5A7C539F50A
:10139000A8C53AF5000E3B6E000E3C6E200E3D6E69
:1013A000410E3E6EFCECB3F037C5A5F538C5A6F589
:1013B00039C5A7F53AC5A8F505017D07D8A07E0770
:1013C0009C4B9D2B8A519C5D9D51800A7B6F8B515C
:1013D000800A7B59D8B0EFEF89F0F1EF89F0FFEF89
:1013E00089F0A4BFFDEF89F0A45109E14B0EA35D84
:1013F000D8A0FDEF89F0FFEF89F0FDEF88F0000E37
:101400009D6F4F0E9C6F400E9C25D96E080E9D213E
:10141000DA6EDF6A400E7B6F080E7C6FA3517B5F34
:10142000A4517C5B9C517B25096E9D517C210A6EE9
:10143000400E0B6E080E0C6EA3C50DF5A4C50EF57F
:10144000C0ECF9F00501A3519C5DA36FA4519D5917
:10145000A46F9E51D8A42FEF8AF032EF8AF0010ECC
:1014600033EF8AF0000E9C6F9D6B57A23AEF8AF023
:101470003CEF8AF06AEF8AF04CEF8AF0A307D8A01D
:10148000A407400EA325D96E080EA421DA6E300EF3
:10149000DF6E9207D8A0930792519C5D9D51800A00
:1014A0007B6F9351800A7B59D8B059EF8AF05BEF7C
:1014B0008AF06AEF8AF0A3519C5D9D51800A7B6F90
:1014C000A451800A7B59D8A068EF8AF06AEF8AF0AD
:1014D0003EEF8AF09E51D8B470EF8AF072EF8AF036
:1014E0007DEF8AF0A307D8A0A407400EA325D96EEC
:1014F000080EA421DA6E9EC5DFF49C51925F9D51C7
:10150000935B74C51AF575C51BF5400EA3251C6EBB
:10151000080EA4211D6E92C51EF593C51FF5D7ECCC
:10152000F1F0120079C690F67AC691F67DC6D9F42C
:101530007EC6DAF4DE6ADD6A77C6D1F578C6D2F502
:10154000A00E0501D36F060ED46F92ECE6F00601F3
:101550008F6F8F51D8A4AFEF8AF0B1EF8AF0C1EF4F
:101560008AF020EE0FF07751D9267851DA22DF5039
:101570008F6F8F51D8B4BFEF8AF0C1EF8AF0C4EFFC
:101580008AF08F51CFEF8EF020EE0EF07751D926F2
:101590007851DA22DFB2CFEF8AF0D1EF8AF0D4EFC0
:1015A0008AF0070ECFEF8EF020EE10F07751D9269B
:1015B0007851DA2210EE10F07751E1267851E222CC
:1015C000E6C483F6E6C484F6E6C485F6E6C486F689
:1015D0007B518325876F7C518421886F000E852184
:1015E000896F000E86218A6FDE50875DDE50885934
:1015F000DE508959DE508A59D8B001EF8BF003EFE5
:101600008BF011EF8BF020EE10F07751D926785146
:10161000DA22DEC47FF6DDC480F67F1D7B6F801D7D
:101620007C6F7B517C11D8A418EF8BF01AEF8BF0F4
:101630001CEF8BF0C6EF8EF020EE10F07751D9261C
:101640007851DA22FF0EDE147F6F010EDE14806FF8
:10165000000EDE14816F000EDE14826F7F51801148
:1016600081118211D8A437EF8BF039EF8BF00AEF9C
:101670008EF020EE10F07751D9267851DA22DEC4B0
:101680007FF6DEC480F6DEC481F6DEC482F60A0E82
:101690004FEF8BF0D8908233813380337F33E82E45
:1016A0004AEF8BF020EE0AF0A051D926A151DA22A0
:1016B000DEC483F6DDC484F6FF0E8325856FFF0E3E
:1016C0008421866F7F518515926F80518615936FA7
:1016D00092519311D8A46FEF8BF071EF8BF039EF2B
:1016E0008CF020EE10F07751D9267851DA22DE50B6
:1016F000DE10DE10DE10D8A480EF8BF082EF8BF0CE
:10170000B3EF8BF020EE06F07751D9267851DA222C
:10171000DEC496F6DEC497F6DEC498F6DEC499F60B
:101720009651971198119911D8A499EF8BF09BEFCE
:101730008BF0CFEF8BF077C65AF678C65BF6000ECB
:101740005C6F000E5D6F000E5E6F000E5F6F03EC4E
:101750009EF05AC696F65BC697F65CC698F65DC6CE
:1017600099F6CFEF8BF077C65AF678C65BF620EE87
:1017700014F07751D9267851DA22DEC45CF6DEC443
:101780005DF6DEC45EF6DEC45FF603EC9EF05AC67C
:1017900096F65BC697F65CC698F65DC699F60601A6
:1017A0009651971198119911D8A4D9EF8BF0DBEFCE
:1017B0008BF0DDEF8BF0C6EF8EF096059711981148
:1017C0009911D8A4E6EF8BF0E8EF8BF0F3EF8BF0F4
:1017D00020EE0FF07751D9267851DA22020EDF6E13
:1017E000020ECFEF8EF096290AE1972908E1982999
:1017F00006E19929D8A4FFEF8BF001EF8CF00CEFF4
:101800008CF020EE0FF07751D9267851DA22010EB4
:10181000DF6E010ECFEF8EF020EE14F07751D92657
:101820007851DA2296C6DEF497C6DEF498C6DEF466
:1018300099C6DEF420EE06F07751D9267851DA22E7
:10184000DE50DE10DE10DE10D8A429EF8CF02BEF76
:101850008CF039EF8CF020EE06F07751D9267851D4
:10186000DA2296C6DEF497C6DEF498C6DEF499C690
:10187000DEF420EE0EF07751D9267851DA22DFAE71
:1018800044EF8CF046EF8CF083EF8CF0220E77253E
:101890000D6F000E78210E6F20EE18F07751D926CB
:1018A0007851DA22DEC40FF6DEC410F6DEC411F67B
:1018B000DEC412F6000E146F010E136F20EE01F05D
:1018C000A051D926A151DA22DF5045ECD9F0000908
:1018D000D8B46DEF8CF06FEF8CF07AEF8CF00601DE
:1018E00020EE0FF07751D9267851DA22010EDF6E03
:1018F00009EF8CF0060120EE0EF07751D9267851D1
:10190000DA227F0EDF16A0C615F5A1C616F520EE69
:1019100014F07751D9267851DA22DEC417F5DEC4E7
:1019200018F5DEC419F5DEC41AF5D2ECECF015C5D5
:101930009CF616C59DF617C59EF618C59FF60601BE
:101940009C519D119E119F11D8A4A9EF8CF0ABEF73
:101950008CF0B5EF8CF020EE0FF07751D92678514E
:10196000DA22020EDF6EF0EF8BF092519C2793513A
:101970009D23000E9E23000E9F237BC67FF67CC610
:1019800080F6090E816FD89080337F33812FC3EFAB
:101990008CF07FC694F680C695F694519511D8B414
:1019A000D4EF8CF0D6EF8CF09AEF8DF09451922515
:1019B0007F6F95519321806F20EE0AF0A051D926B8
:1019C000A151DA227F51DE5C8051DE58D8B0EBEFB6
:1019D0008CF0EDEF8CF0FDEF8CF020EE0AF0A051D2
:1019E000D926A151DA22DEC47FF6DDC480F69251F9
:1019F0007F5D946F93518059956F90C60DF691C697
:101A00000EF69CC60FF69DC610F69EC611F69FC632
:101A100012F694C613F695C614F620EE01F0A05106
:101A2000D926A151DA22DF5045ECD9F00009D8B40B
:101A30001CEF8DF01EEF8DF029EF8DF0060120EEEA
:101A40000FF07751D9267851DA22010EDF6E09EFB7
:101A50008CF0060194517F6F9551806F816B826B82
:101A600020EE18F07751D9267851DA22DEC483F6B9
:101A7000DEC484F6DEC485F6DEC486F69C51835D42
:101A8000876F9D518459886F9E518559896F9F51E9
:101A900086598A6F7F51875D805188598151895954
:101AA00082518A59D8B057EF8DF059EF8DF089EFF8
:101AB0008DF0220E7725096E000E78210A6E20EE39
:101AC00018F07751D9267851DA22DEC47FF6DDC4CA
:101AD00080F69C517F5F9D51805B090ED8907F37C7
:101AE0008037E82E6EEF8DF07F5190250B6E805180
:101AF00091210C6E020E0E6E000E0D6EC0ECF9F010
:101B0000060120EE0EF07751D9267851DA227F0EA9
:101B1000DF1694C67FF695C680F6090ED8907F37FB
:101B20008037E82E8EEF8DF07FC69AF680C69BF642
:101B300060EF8EF020EE18F07751D9267851DA2236
:101B40009C51DE180FE19D51DE180CE19E51DE180C
:101B500009E19F51DE18D8B4B0EF8DF0B2EF8DF0EF
:101B6000FBEF8DF020EE0AF07751D9267851DA227A
:101B700010EE10F07751E1267851E222DE50E65C5B
:101B8000DE50E658DE50E658DE50E658D8B0CBEFCF
:101B90008DF0CDEF8DF0FBEF8DF0220E77250F6FDE
:101BA000000E7821106F9CC611F69DC612F69EC6D7
:101BB00013F69FC614F6000E166F010E156F20EE79
:101BC00001F0A051D926A151DA22DF5004ECDAF05D
:101BD0000009D8B4EEEF8DF0F0EF8DF0FBEF8DF053
:101BE000060120EE0FF07751D9267851DA22010E46
:101BF000DF6E09EF8CF0060120EE18F07751D92640
:101C00007851DA229CC6DEF49DC6DEF49EC6DEF470
:101C10009FC6DEF420EE10F07751D9267851DA22F3
:101C2000DEC47FF6DDC480F6FF0E7F15816F010EE6
:101C30008015826F815100089A6F8251D8A0E82ADE
:101C400002089B6F9A517B5D9B517C59D8B02BEF5A
:101C50008EF02DEF8EF031EF8EF07BC69AF67CC6BB
:101C60009BF620EE10F07751D9267851DA22DEC4A7
:101C70007FF6DDC480F6FF0E7F15816F010E8015A3
:101C8000826F81517725836F82517821846F220E74
:101C90008325096E000E84210A6E90C60BF591C64D
:101CA0000CF59AC60DF59BC60EF5C0ECF9F00601D1
:101CB00020EE0EF07751D9267851DA22000EDB8E15
:101CC0009A517B5F9B517C5B7DC6D9F47EC6DAF46A
:101CD0009A51DE269B51DD229A5190279B519123E8
:101CE00020EE10F07751D9267851DA229A51DE266B
:101CF0009B51DE22000EDE22DE2220EE10F0775114
:101D0000D9267851DA2210EE0AF07751E12678517F
:101D1000E222DE50E65CDE50E658DE50E658DE5049
:101D2000E658D8A096EF8EF098EF8EF0A8EF8EF0E0
:101D300020EE0AF07751D9267851DA22DEC48BF6EC
:101D4000DEC48CF6DEC48DF6DEC48EF6B6EF8EF001
:101D500020EE10F07751D9267851DA22DEC48BF6C6
:101D6000DEC48CF6DEC48DF6DEC48EF620EE0AF0FC
:101D70007751D9267851DA228BC6DEF48CC6DEF490
:101D80008DC6DEF48EC6DEF411EF8BF020EE0EF081
:101D90007751D9267851DA22000EDB8C000E120022
:101DA00077C6D1F578C6D2F59A0E0501D36F060E27
:101DB000D46F92ECE6F00601956F9551D8A4E3EF4D
:101DC0008EF0E5EF8EF0EDEF8EF020EE0FF0775114
:101DD000D9267851DA22DF50956F9551D8B4F3EFB8
:101DE0008EF0F5EF8EF0F8EF8EF09551D0EF92F087
:101DF00020EE0AF07751D9267851DA227951DE5C4B
:101E00007A51DE587B51DE587C51DE58D8B00BEF4A
:101E10008FF00DEF8FF028EF8FF020EE0EF077515E
:101E2000D9267851DA22DFB218EF8FF01AEF8FF04F
:101E300028EF8FF020EE0AF07751D9267851DA2278
:101E4000DEC479F6DEC47AF6DEC47BF6DEC47CF648
:101E500020EE10F07751D9267851DA22DEC48DF6C3
:101E6000DEC48EF6DEC48FF6DEC490F6000E916FEF
:101E7000000E926F000E936F000E946F20EE10F024
:101E80007751D9267851DA2291C6DEF492C6DEF473
:101E900093C6DEF494C6DEF479517A117B117C117D
:101EA000D8B455EF8FF057EF8FF0DBEF91F020EEC5
:101EB0000AF09A51D9269B51DA22DEC47DF6DDC4A0
:101EC0007EF67D517F6F7E51806F816B826B090E34
:101ED000D8907F37803781378237E82E68EF8FF0D0
:101EE0007FC696F680C697F681C698F682C699F6A2
:101EF0008D518E118F119011D8B481EF8FF083EF37
:101F00008FF020EF90F0FF0E7925096EFF0E7A21F9
:101F10000A6EFF0E7B210B6EFF0E7C210C6E96C6A7
:101F20000DF597C60EF598C60FF599C610F585EC18
:101F3000F1F009C57DF60AC57EF60BC57FF60CC526
:101F400080F6FF0E06018D25096EFF0E8E210A6EAA
:101F5000FF0E8F210B6EFF0E90210C6E96C60DF5B5
:101F600097C60EF598C60FF599C610F585ECF1F0F9
:101F7000095006017D5D0A507E590B507F590C5067
:101F80008059D8A0C6EF8FF0C8EF8FF020EF90F007
:101F9000FF0E96257D6FFF0E97217E6FFF0E982115
:101FA0007F6FFF0E9921806F7D1D816F7E1D826F77
:101FB0007F1D836F801D846FFF0E8D25856FFF0E43
:101FC0008E21866FFF0E8F21876FFF0E9021886F05
:101FD00081518515896F825186158A6F83518715C6
:101FE0008B6F845188158C6F20EE10F07751D926B5
:101FF0007851DA2289C6DEF48AC6DEF48BC6DEF4B6
:102000008CC6DEF420EE10F07751D9267851DA2212
:10201000DE50795FDE507A5BDE507B5BDD507C5BAF
:1020200020EE14F07751D9267851DA22DEC49CF6DE
:10203000DEC49DF6DEC49EF6DEC49FF69BEF90F0F4
:1020400020EE06F07751D9267851DA22DEC49CF6CC
:10205000DEC49DF6DEC49EF6DEC49FF69C519D1143
:102060009E119F11D8A437EF90F039EF90F08DEFCB
:1020700090F077C65AF678C65BF6000E5C6F000EDD
:102080005D6F000E5E6F000E5F6F03EC9EF05AC630
:102090009CF65BC69DF65CC69EF65DC69FF6060185
:1020A0009C059D119E119F11D8A459EF90F05BEFF4
:1020B00090F066EF90F020EE0FF07751D92678512E
:1020C000DA22020EDF6E020ED0EF92F09C290AE1B6
:1020D0009D2908E19E2906E19F29D8A472EF90F07E
:1020E00074EF90F07FEF90F020EE0FF07751D9264B
:1020F0007851DA22010EDF6E010ED0EF92F020EE61
:1021000006F07751D9267851DA229CC6DEF49DC6B6
:10211000DEF49EC6DEF49FC6DEF420EE14F07751A6
:10212000D9267851DA229CC6DEF49DC6DEF49EC61E
:10213000DEF49FC6DEF49C519D119E119F11D8B410
:10214000A4EF90F0A6EF90F0DBEF91F060EF91F04C
:102150009651795F97517A5B98517B5B99517C5B83
:1021600020EE10F07751D9267851DA229651DE26EA
:102170009751DE229851DE229951DE2220EE0EF098
:102180007751D9267851DA22DFA2C9EF90F0CBEF50
:1021900090F0F7EF90F077C65AF678C65BF69CC6DB
:1021A0005CF69DC65DF69EC65EF69FC65FF603ECC6
:1021B0009EF05AC69CF65BC69DF65CC69EF65DC652
:1021C0009FF606019C519D119E119F11D8A4EBEF23
:1021D00090F0EDEF90F00DEF91F0000E796F000EA2
:1021E0007A6F000E7B6F000E7C6F6FEF91F077C6F9
:1021F00039F678C63AF69CC63BF69DC63CF69EC6B6
:102200003DF69FC63EF671ECAEF039C69CF63AC676
:102210009DF63BC69EF63CC69FF606019C290AE148
:102220009D2908E19E2906E19F29D8A41AEF91F083
:102230001CEF91F026EF91F020EE0FF07751D926A8
:102240007851DA22010EDF6E7CEF90F09F519E11E3
:102250009D1109E1020E9C5DD8A031EF91F033EFA2
:1022600091F048EF91F020EE14F09A51D9269B514D
:10227000DA22DE509C5DDE509D59DE509E59DE50C4
:102280009F59D8A046EF91F048EF91F052EF91F0AE
:1022900020EE0FF07751D9267851DA22020EDF6E48
:1022A00063EF90F020EE14F07751D9267851DA22BE
:1022B0009CC6DEF49DC6DEF49EC6DEF49FC6DEF448
:1022C0007951965D7A5197597B5198597C5199591A
:1022D000D8A06DEF91F06FEF91F0A8EF90F020EEA5
:1022E00010F07751D9267851DA227951DE267A51C9
:1022F000DE227B51DE227C51DE22FF0E79157D6FBE
:10230000010E7A157E6F000E7B157F6F000E7C1517
:10231000806F7D517E117F118011D8B492EF91F0C2
:1023200094EF91F0DBEF91F09AC615F59BC616F588
:102330009CC617F59DC618F59EC619F59FC61AF5D9
:10234000D2ECECF015C591F616C592F617C593F6CA
:1023500018C594F606019151921193119411D8A4C5
:10236000B4EF91F0B6EF91F0C0EF91F020EE0FF0E6
:102370007751D9267851DA22020EDF6E63EF90F0A2
:1023800079C67DF67AC67EF67BC67FF67CC680F679
:102390000A0ED0EF91F0D89080337F337E337D33B7
:1023A000E82ECBEF91F07D5191277E5192237F5102
:1023B00093238051942320EE10F07751D926785141
:1023C000DA2210EE0AF07751E1267851E222DE504F
:1023D000E65CDE50E658DE50E658DE50E658D8B0EF
:1023E000F4EF91F0F6EF91F012EF92F020EE10F092
:1023F0007751D9267851DA2210EE0AF07751E1268A
:102400007851E222DEC4E6F4DEC4E6F4DEC4E6F48B
:10241000DEC4E6F420EE0EF07751D9267851DA22A8
:10242000000EDB8C20EE10F07751D9267851DA229D
:10243000FF0EDE147D6F010EDE147E6F000EDE14C3
:102440007F6F000EDE14806F7D517E117F11801131
:10245000D8B42DEF92F02FEF92F0F5EF8EF020EE42
:1024600018F07751D9267851DA229151DE180FE110
:102470009251DE180CE19351DE1809E19451DE18F7
:10248000D8B445EF92F047EF92F0F5EF8EF020EEE2
:102490000EF07751D9267851DA22DFAE52EF92F062
:1024A00054EF92F091EF92F0220E77250D6F000E0F
:1024B00078210E6F20EE18F07751D9267851DA2264
:1024C000DEC40FF6DEC410F6DEC411F6DEC412F66A
:1024D000000E146F010E136F20EE01F09A51D926F1
:1024E0009B51DA22DF5045ECD9F00009D8B47BEFDC
:1024F00092F07DEF92F088EF92F0060120EE0FF05F
:102500007751D9267851DA22010EDF6E7CEF90F0F8
:10251000060120EE0EF07751D9267851DA227F0E8F
:10252000DF16220E77250F6F000E7821106F91C6EF
:1025300011F692C612F693C613F694C614F6000E60
:10254000166F010E156F20EE01F09A51D9269B519E
:10255000DA22DF5004ECDAF00009D8B4B2EF92F0DE
:10256000B4EF92F0BFEF92F0060120EE0FF077513A
:10257000D9267851DA22010EDF6E7CEF90F0060149
:1025800020EE18F07751D9267851DA2291C6DEF480
:1025900092C6DEF493C6DEF494C6DEF4F5EF8EF058
:1025A00012000601C251C311D8A4D9EF92F0DBEF9B
:1025B00092F0DEEF92F0090EC4EF96F03F0EC617D0
:1025C000C40E946F060E956F180E966F070E976FD8
:1025D000C6C698F600EC80F007011A6F1A51D8A40D
:1025E000F4EF92F0F6EF92F0B4EF96F018C71BF705
:1025F00019C71CF71B0E0601996F070E9A6FC4C608
:102600009BF6C5C69CF680ECC1F007011A6F1A5103
:10261000D8A40DEF93F00FEF93F018EF93F042AFC3
:1026200014EF93F016EF93F018EF93F0060E1A6F75
:10263000C6C6C7F61C0E0601C717D8B422EF93F022
:1026400024EF93F050EF94F007011A51D8B42BEF18
:1026500093F02DEF93F043EF93F0040E1A19D8A4E2
:1026600034EF93F036EF93F03FEF93F01B0E06013B
:102670009D6F070E9E6F74ECE9F007011A6F06015B
:10268000C6875EEF93F01FC7C7F6110E0601C71786
:10269000D8B44DEF93F04FEF93F054EF93F0070E53
:1026A00007011A6F5EEF93F0C6A559EF93F05BEF49
:1026B00093F05EEF93F0080E07011A6F07011A51AD
:1026C000D8A465EF93F067EF93F076EF94F00601EE
:1026D000C6A76DEF93F06FEF93F076EF94F03FECB9
:1026E000FEF009C504F70AC505F70BC506F70CC5CA
:1026F00007F70E0E07013525096E000E36210A6E0A
:1027000004C70BF505C70CF506C70DF507C70EF591
:1027100048ECF6F0160E07013525096E000E36213D
:102720000A6E04C70BF505C70CF506C70DF507C7FC
:102730000EF548ECF6F018C710F519C711F535C7B6
:1027400012F536C713F565ECF4F010C508F711C59E
:1027500009F712C50AF713C50BF7070120EE0BF0B6
:102760003551D9263651DA22200EDF6E18C70DF505
:1027700019C70EF535C70FF536C710F5000E116EE7
:10278000000E126E000E136E000E146E36ECFAF090
:102790001C0E07013525096E000E36210A6E000E4B
:1027A0000B6E000E0C6E000E0D6E000E0E6E48ECE1
:1027B000F6F0070120EE04F01851D9261951DA225B
:1027C000010EDF6E085109110A110B11D8B4EBEF9D
:1027D00093F0EDEF93F076EF94F020EE2CF018519B
:1027E000D9261951DA22DEC40CF7DEC40DF7DEC497
:1027F0000EF7DEC40FF71B0E06015A6F070E5B6F54
:1028000008C75CF609C75DF60AC75EF60BC75FF638
:10281000000E606F000E616F000E626F000E636F3E
:1028200059ECBFF007011A6F1A51D8A41AEF94F0AF
:102830001CEF94F076EF94F018C72EF619C72FF618
:102840000CC730F60DC731F60EC732F60FC733F698
:1028500038ECEDF007011A6FFF0E08250601C76F6F
:10286000FF0E070109210601C86FFF0E07010A21AB
:102870000601C96FFF0E07010B210601CA6F070190
:1028800020EE0CF01851D9261951DA22C7C6DEF411
:10289000C8C6DEF4C9C6DEF4CAC6DEF476EF94F02C
:1028A00007011A51D8A457EF94F059EF94F076EF3E
:1028B00094F01FA95EEF94F060EF94F064EF94F051
:1028C000040E1A6F76EF94F00601C6A36AEF94F037
:1028D0006CEF94F076EF94F007011FA172EF94F083
:1028E00074EF94F076EF94F0070E1A6F07011A5107
:1028F000D8A47DEF94F07FEF94F0A8EF94F0060158
:10290000C6A785EF94F087EF94F088EF94F0C68D1A
:10291000070120EE2CF01851D9261951DA220601B0
:1029200010EE1CF0C251E126C351E222DEC4E6F4EF
:10293000DEC4E6F4DEC4E6F4DEC4E6F420EE20F005
:10294000C251D926C351DA2235C7DEF436C7DDF4C9
:1029500007011A51D8A4AFEF94F0B1EF94F0B4EF9F
:1029600096F018C710F519C711F535C712F536C717
:1029700013F565ECF4F0060120EE06F0C251D926FD
:10298000C351DA2210C5DEF411C5DEF412C5DEF43F
:1029900013C5DEF41C0E07013525096E000E362125
:1029A0000A6E27ECEFF0060120EE0AF0C251D9269C
:1029B000C351DA2209C5DEF40AC5DEF40BC5DEF424
:1029C0000CC5DEF4C2C6D9F4C3C6DAF418C7DEF407
:1029D00019C7DDF4070120EE06F01851D926195168
:1029E000DA22060110EE02F0C251E126C351E222C2
:1029F000DEC4E6F4DDC4E5F420EE0EF0C251D926C3
:102A0000C351DA22C6C6DFF420EE0FF0C251D92638
:102A1000C351DA22DF6A20EE18F0C251D926C35121
:102A2000DA22DE6ADE6ADE6ADD6A20EE10F0C2516A
:102A3000D926C351DA22DE6ADE6ADE6ADD6A220E38
:102A4000C225096E000EC3210A6E000E0C6E000E28
:102A50000B6E020E0E6E000E0D6E9FECFBF006016B
:102A6000C6AB35EF95F037EF95F0B4EF96F020EE6A
:102A70000AF0C251D926C351DA22DE50DE10DE1030
:102A8000DE10D8B446EF95F048EF95F0B4EF96F02D
:102A900020EE0AF0C251D926C351DA2210EE10F00E
:102AA000C251E126C351E222DEC4E6F4DEC4E6F4FC
:102AB000DEC4E6F4DEC4E6F4070120EE0AF01851A5
:102AC000D9261951DA22DEC4C7F6DDC4C8F60601DC
:102AD000C751C96FC851CA6FCB6BCC6B090ED89068
:102AE000C937CA37CB37CC37E82E6FEF95F0C9C658
:102AF00000F7CAC601F7CBC602F7CCC603F720EE33
:102B000006F0C251D926C351DA22DEC414F7DEC45E
:102B100015F7DEC416F7DEC417F720EE0AF0C2512F
:102B2000D926C351DA22DEC410F7DEC411F7DEC4A1
:102B300012F7DEC413F7DBEF95F0C2C639F6C3C651
:102B40003AF614C73BF615C73CF616C73DF617C74D
:102B50003EF671ECAEF039C614F73AC615F73BC62F
:102B600016F73CC617F7070117511611151107E1A3
:102B7000020E145DD8B0BFEF95F0C1EF95F0C3EF32
:102B800095F0020E1A6F14290AE1152908E1162999
:102B900006E11729D8A4CFEF95F0D1EF95F0D3EF48
:102BA00095F0010E1A6F0051105F0151115B025137
:102BB000125B0351135B07011A51D8A4E2EF95F0A1
:102BC000E4EF95F0F3EF95F01051005D11510159CC
:102BD0001251025913510359D8A0F1EF95F0F3EFB8
:102BE00095F09DEF95F0060120EE14F0C251D92624
:102BF000C351DA2214C7DEF415C7DEF416C7DEF4BB
:102C000017C7DEF407011A51D8A409EF96F00BEFAD
:102C100096F0B4EF96F0FF0E10150601C76F010E87
:102C2000070111150601C86F000E070112150601F4
:102C3000C96F000E070113150601CA6FC751C811ED
:102C4000C911CA11D8B427EF96F029EF96F0B4EF66
:102C500096F018C715F519C716F514C717F515C757
:102C600018F516C719F517C71AF5D2ECECF015C50B
:102C70000CF716C50DF717C50EF718C50FF70701A6
:102C80000C510D110E110F11D8A449EF96F04BEF16
:102C900096F04FEF96F0020E1A6FB4EF96F010C751
:102CA000C7F611C7C8F612C7C9F613C7CAF60A0E87
:102CB00060EF96F00601D890CA33C933C833C733E2
:102CC000E82E5AEF96F007010C510601C725CB6F8D
:102CD00007010D510601C821CC6F07010E510601F5
:102CE000C921CD6F07010F510601CA21CE6F20EE19
:102CF00018F0C251D926C351DA22CBC6DEF4CCC6B5
:102D0000DEF4CDC6DEF4CEC6DEF4220EC2250F6F91
:102D1000000EC321106F20EE18F0C251D926C35106
:102D2000DA22DEC411F6DEC412F6DEC413F6DEC407
:102D300014F6000E166F010E156F070120EE01F05C
:102D40001851D9261951DA22DF5004ECDAF00009C3
:102D5000D8B4ADEF96F0AFEF96F0B4EF96F0010E69
:102D600007011A6FB4EF96F007011A51D8B4BBEF00
:102D700096F0BDEF96F0C3EF96F0C2C6D9F4C3C685
:102D8000DAF4DE6ADD6A1A511200ABC5D9F4ACC5BB
:102D9000DAF4DEC4F6F4DDC4F7F4000EF86E0800D1
:102DA000F550250AD8A4D7EF96F0D9EF96F062EF48
:102DB0009AF0ABC5D9F4ACC5DAF4DE2A000EDD22F8
:102DC000000E526E000E516E51C557F5536854688F
:102DD0000501B36B0CEF97F05782ABC5D9F4ACC5C6
:102DE000DAF4DE2A000EDD220CEF97F0010EB36F4D
:102DF0000CEF97F0ABC5D9F4ACC5DAF4DEC4F6F449
:102E0000DDC4F7F4000EF86E0800F550300AD8B4AF
:102E1000ECEF96F0F6EF96F0B351D8B412EF97F0CE
:102E200014EF97F0FAEF96F0ABC509F5ACC50AF5CB
:102E3000ADC50BF5AEC50CF56CECECF009C551F564
:102E40000AC552F552BE29EF97F027EF97F02EEF03
:102E500097F05780516C521ED8B0522AABC5D9F4A6
:102E6000ACC5DAF4DEC4F6F4DDC4F7F4000EF86E97
:102E70000800F5502E0AD8A440EF97F042EF97F0E3
:102E800057EF97F0ABC5D9F4ACC5DAF4DE2A000EE3
:102E9000DD22ABC509F5ACC50AF5ADC50BF5AEC570
:102EA0000CF56CECECF009C553F50AC554F5ABC54F
:102EB000D9F4ACC5DAF4DEC4F6F4DDC4F7F4000EE0
:102EC000F86E0800F550630AD8A469EF97F06BEF2D
:102ED00097F08FEF97F0ABC5D9F4ACC5DAF4DE2AE2
:102EE000000EDD22ADC5D9F4AEC5DAF4DFC4AFF50E
:102EF000020EDE26DFC4B0F5000EDD22AFC5D9F428
:102F0000B0C5DAF4DF500501B86FA9C513F5AAC53D
:102F100014F5B8C515F502ECEEF078EF9AF0ABC5F4
:102F2000D9F4ACC5DAF4DEC4B9F5DDC4BAF5B9C577
:102F3000F6F4BAC5F7F4000EF86E0800F5C4B8F55B
:102F4000ADEF97F0B94BBA2BC5EF97F0690EB86F9C
:102F5000C5EF97F0B86BC5EF97F00501B851580A67
:102F6000D8B4A6EF97F03C0AD8B4A6EF97F00D0AB4
:102F7000D8B4A6EF97F0050AD8B4A2EF97F0140AD8
:102F8000D8B4A6EF97F0AAEF97F0B9C5F6F4BAC592
:102F9000F7F4000EF86E0800F550640AD8B4D3EFC9
:102FA00097F0D5EF97F01CEF98F0B9C5F6F4BAC5D5
:102FB000F7F4000EF86E0800F550690AD8A4E3EFA4
:102FC00097F0E5EF97F045EF98F01CEF98F0ADC55E
:102FD000D9F4AEC5DAF4DFC4AFF5020EDE26DFC4E5
:102FE000B0F5000EDD22AFC5D9F4B0C5DAF4DEC409
:102FF000B4F5DDC4B5F5000EB5BFFF0EB66FB76F03
:1030000027EF98F0ADC5D9F4AEC5DAF4DFC4AFF55B
:10301000040EDE26DFC4B0F5000EDD22AFC5D9F404
:10302000B0C5DAF4DEC4B4F5DEC4B5F5DEC4B6F579
:10303000DEC4B7F527EF98F0B851690AD8B4E7EFC6
:1030400097F0050AD8B402EF98F027EF98F0010E38
:10305000B925AF6F000EBA21B06FABC5D9F4ACC5BE
:10306000DAF4AFC5DEF4B0C5DDF4A9C523F5AAC511
:1030700024F5B4C525F5B5C526F5B6C527F5B7C5FC
:1030800028F59EECCAF078EF9AF0B9C5F6F4BAC507
:10309000F7F4000EF86E0800F550780AD8B453EF34
:1030A00098F055EF98F09DEF98F0B9C5F6F4BAC5D1
:1030B000F7F4000EF86E0800F550580AD8A463EF34
:1030C00098F065EF98F0E3EF98F09DEF98F0ADC5BC
:1030D000D9F4AEC5DAF4DFC4AFF5020EDE26DFC4E4
:1030E000B0F5000EDD22AFC5D9F4B0C5DAF4DEC408
:1030F000B1F5DDC4B2F5B1C5B4F5B2C5B5F5B66B81
:10310000B76BA8EF98F0ADC5D9F4AEC5DAF4DFC45B
:10311000AFF5040EDE26DFC4B0F5000EDD22AFC52C
:10312000D9F4B0C5DAF4DEC4B4F5DEC4B5F5DEC456
:10313000B6F5DEC4B7F5A8EF98F0B851690AD8B46F
:1031400067EF98F0050AD8B483EF98F0A8EF98F0ED
:10315000010EB925AF6F000EBA21B06FABC5D9F41F
:10316000ACC5DAF4AFC5DEF4B0C5DDF4D1EF98F04C
:10317000A9C523F5AAC524F5B4C525F5B5C526F519
:10318000B6C527F5B7C528F5B9C5F6F4BAC5F7F43D
:10319000000EF86E0800F5C429F540ECD6F078EF83
:1031A0009AF0B9C5F6F4BAC5F7F4000EF86E080047
:1031B000F550580AD8B4B8EF98F0200AD8B4B8EF50
:1031C00098F0E3EF98F0B36BABC5D9F4ACC5DAF483
:1031D000DEC4F6F4DDC4F7F4000EF86E0800F55016
:1031E000730AD8A4F6EF98F0F8EF98F003EF99F08F
:1031F000ABC5D9F4ACC5DAF4DE2A000EDD22010E2F
:10320000B36F59EF99F0ABC5D9F4ACC5DAF4DEC4AD
:10321000F6F4DDC4F7F4000EF86E0800F5506C0A01
:10322000D8A415EF99F017EF99F059EF99F0ABC5C5
:10323000D9F4ACC5DAF4DEC4AFF5DDC4B0F5010EE7
:10324000AF27000EB023AFC5F6F4B0C5F7F4000EFB
:10325000F86E0800F5506C0AD8A431EF99F033EFFE
:1032600099F059EF99F0ABC5D9F4ACC5DAF4DEC4E6
:10327000AFF5DDC4B0F5020EAF27000EB023AFC529
:10328000F6F4B0C5F7F4000EF86E0800F550730AB6
:10329000D8A44DEF99F04FEF99F059EF99F0030E44
:1032A000ABC5D9F4ACC5DAF4DE26000EDD22FFEFA3
:1032B00098F0B351D8B45FEF99F061EF99F07DEFDA
:1032C00099F0A9C513F5AAC514F5ADC5D9F4AEC5D5
:1032D000DAF4DFC4AFF5020EDE26DFC4B0F5000E6F
:1032E000DD22AFC5D9F4B0C5DAF4DEC415F5DDC40E
:1032F00016F550ECD2F078EF9AF0ABC5D9F4ACC526
:10330000DAF4DEC4B9F5DDC4BAF5B9C5F6F4BAC568
:10331000F7F4000EF86E0800F5C4B8F59BEF99F0CD
:10332000B94BBA2BAAEF99F06C0EB86FAAEF99F0CF
:10333000B86BAAEF99F0B8514C0AD8B490EF99F055
:103340002A0AD8B494EF99F00A0AD8B490EF99F009
:1033500098EF99F0B9C5F6F4BAC5F7F4000EF86E17
:103360000800F550660AD8A4B8EF99F0BAEF99F0C2
:1033700032EF9AF0F0EF99F0ADC5D9F4AEC5DAF4BA
:10338000DFC4AFF5040EDE26DFC4B0F5000EDD228B
:10339000AFC5D9F4B0C5DAF4DEC4B4F5DEC4B5F512
:1033A000DEC4B6F5DEC4B7F5FBEF99F0ADC5D9F4D0
:1033B000AEC5DAF4DFC4AFF5040EDE26DFC4B0F527
:1033C000000EDD22AFC5D9F4B0C5DAF4DEC4B4F521
:1033D000DEC4B5F5DEC4B6F5DEC4B7F5FBEF99F093
:1033E000B8514C0AD8B4D6EF99F0200AD8B4BCEF43
:1033F00099F0FBEF99F0010EB925AF6F000EBA21DD
:10340000B06FABC5D9F4ACC5DAF4AFC5DEF4B0C566
:10341000DDF424EF9AF0A9C574F5AAC575F5B4C515
:1034200076F5B5C577F5B6C578F5B7C579F5B9C5FB
:10343000F6F4BAC5F7F4000EF86E0800F5C47AF594
:1034400062EC85F078EF9AF0B9C5F6F4BAC5F7F4F6
:10345000000EF86E0800F550660AD8B40BEF9AF02B
:1034600032EF9AF0ABC5D9F4ACC5DAF4DEC4F6F4A9
:10347000DDC4F7F4000EF86E0800F550250AD8A454
:1034800044EF9AF046EF9AF059EF9AF0ABC5D9F4B1
:10349000ACC5DAF4DE2A000EDD22000E0B6E250E1E
:1034A0000A6EA9C50CF5AAC50DF59DECEDF078EFF7
:1034B0009AF0ABC5D9F4ACC5DAF4DE2A000EDD22F1
:1034C00078EF9AF0ABC5D9F4ACC5DAF4DEC4F6F403
:1034D000DDC4F7F4000EF86E0800F5500A6E0B6AB2
:1034E000A9C50CF5AAC50DF59DECEDF059EF9AF0C4
:1034F000120055C670F656C671F659C6D9F45AC6AA
:10350000DAF4DE6ADD6A53C6D1F554C6D2F57C0E14
:103510000501D36F060ED46F92ECE6F006016B6FD7
:103520006B51D8A496EF9AF098EF9AF0A8EF9AF022
:1035300020EE0FF05351D9265451DA22DF506B6F31
:103540006B51D8B4A6EF9AF0A8EF9AF0ABEF9AF0CF
:103550006B5102EF9EF020EE0EF05351D9265451DC
:10356000DA22DFB0B6EF9AF0B8EF9AF0BBEF9AF03C
:10357000070E02EF9EF020EE10F05351D926545161
:10358000DA22DEC45BF6DEC45CF6DEC45DF6DEC4C1
:103590005EF620EE0AF05351D9265451DA22DEC4E9
:1035A0005FF6DEC460F6DEC461F6DEC462F65B512F
:1035B0005F5D676F5C516059686F5D516159696FFC
:1035C0005E5162596A6F57515B6F58515C6F5D6B0A
:1035D0005E6B5B51675D5C5168595D5169595E5125
:1035E0006A59D8B0F6EF9AF0F8EF9AF0FCEF9AF03B
:1035F00067C657F668C658F657515811D8A403EF56
:103600009BF005EF9BF007EF9BF001EF9EF020EEA3
:1036100010F05351D9265451DA22FF0EDE145B6F9D
:10362000010EDE145C6F000EDE145D6F000EDE1402
:103630005E6F5B515C115D115E11D8A422EF9BF0AF
:1036400024EF9BF094EF9DF020EE10F05351D9261B
:103650005451DA22DEC45BF6DEC45CF6DEC45DF6ED
:10366000DEC45EF60A0E3AEF9BF0D8905E335D330F
:103670005C335B33E82E35EF9BF020EE0AF07C5193
:10368000D9267D51DA22DEC45FF6DDC460F6FF0E76
:103690005F25616FFF0E6021626F5B516115726F74
:1036A0005C516215736F72517311D8A45AEF9BF07D
:1036B0005CEF9BF0D9EF9BF020EE10F05351D92630
:1036C0005451DA22DE50DE10DE10DE10D8A46BEF8B
:1036D0009BF06DEF9BF07DEF9BF020EE06F05351D9
:1036E000D9265451DA22DEC46CF6DEC46DF6DEC48F
:1036F0006EF6DEC46FF699EF9BF053C639F654C6EA
:103700003AF620EE14F05351D9265451DA22DEC491
:103710003BF6DEC43CF6DEC43DF6DEC43EF671EC9C
:10372000AEF039C66CF63AC66DF63BC66EF63CC6D0
:103730006FF606016F516E116D1107E1020E6C5D9F
:10374000D8B0A5EF9BF0A7EF9BF0B2EF9BF020EE77
:103750000FF05351D9265451DA22020EDF6E020EB9
:1037600002EF9EF06C290AE16D2908E16E2906E15D
:103770006F29D8A4BEEF9BF0C0EF9BF0CBEF9BF07E
:1037800020EE0FF05351D9265451DA22010EDF6E8C
:10379000010E02EF9EF020EE14F05351D926545141
:1037A000DA226CC6DEF46DC6DEF46EC6DEF46FC6D9
:1037B000DEF47CC615F57DC616F520EE14F05351E7
:1037C000D9265451DA22DEC417F5DEC418F5DEC45A
:1037D00019F5DEC41AF5D2ECECF015C578F616C56D
:1037E00079F617C57AF618C57BF606017851791176
:1037F0007A117B11D8A4FFEF9BF001EF9CF00BEF47
:103800009CF020EE0FF05351D9265451DA22020ECB
:10381000DF6EAFEF9BF07251782773517923000E62
:103820007A23000E7B2357C65BF658C65CF6090E5A
:103830005D6FD8905C335B335D2F19EF9CF05BC6F6
:1038400074F65CC675F674517511D8B42AEF9CF005
:103850002CEF9CF0F5EF9CF0745172255B6F755165
:1038600073215C6F20EE0AF07C51D9267D51DA225B
:103870005B51DE5C5C51DE58D8B041EF9CF043EF09
:103880009CF053EF9CF020EE0AF07C51D9267D513C
:10389000DA22DEC45BF6DDC45CF672515B5D746FE8
:1038A00073515C59756F70C60FF671C610F678C605
:1038B00011F679C612F67AC613F67BC614F674C6EC
:1038C00015F675C616F620EE01F07C51D9267D510D
:1038D000DA22DF5004ECDAF00009D8B472EF9CF081
:1038E00074EF9CF07FEF9CF0060120EE0FF0535137
:1038F000D9265451DA22010EDF6EC8EF9BF0060183
:1039000020EE0EF05351D9265451DA22DFAE8BEF60
:103910009CF08DEF9CF0E3EF9CF074515B6F755160
:103920005C6F5D6B5E6B20EE18F05351D9265451DD
:10393000DA22DEC45FF6DEC460F6DEC461F6DEC401
:1039400062F678515F5D636F79516059646F7A51A7
:103950006159656F7B516259666F5B51635D5C5164
:1039600064595D5165595E516659D8B0BAEF9CF003
:10397000BCEF9CF0E3EF9CF020EE18F05351D926F9
:103980005451DA22DEC45BF6DDC45CF678515B5F2D
:1039900079515C5B090ED8905B375C37E82ECBEF32
:1039A0009CF05B517025096E5C5171210A6E220EEC
:1039B00053250B6E000E54210C6E020E0E6E000E7F
:1039C0000D6EC0ECF9F074C65BF675C65CF6090EB8
:1039D000D89006015B375C37E82EE8EF9CF05BC6B9
:1039E00076F65CC677F6E1EF9DF020EE18F05351C5
:1039F000D9265451DA227851DE180FE17951DE18B8
:103A00000CE17A51DE1809E17B51DE18D8B40BEFD6
:103A10009DF00DEF9DF085EF9DF020EE0EF05351DF
:103A2000D9265451DA22DFAE18EF9DF01AEF9DF03F
:103A300057EF9DF0220E53250D6F000E54210E6F8F
:103A400020EE18F05351D9265451DA22DEC40FF675
:103A5000DEC410F6DEC411F6DEC412F6000E146FDA
:103A6000010E136F20EE01F07C51D9267D51DA2230
:103A7000DF5045ECD9F00009D8B441EF9DF043EF99
:103A80009DF04EEF9DF0060120EE0FF05351D92628
:103A90005451DA22010EDF6EC8EF9BF0060120EED2
:103AA0000EF05351D9265451DA227F0EDF16220E22
:103AB00053250F6F000E5421106F78C611F679C68A
:103AC00012F67AC613F67BC614F6000E166F010EB8
:103AD000156F20EE01F07C51D9267D51DA22DF509E
:103AE00004ECDAF00009D8B478EF9DF07AEF9DF09D
:103AF00085EF9DF0060120EE0FF05351D926545169
:103B0000DA22010EDF6EC8EF9BF0060120EE18F0FE
:103B10005351D9265451DA2278C6DEF479C6DEF440
:103B20007AC6DEF47BC6DEF420EE10F05351D926BF
:103B30005451DA22DEC45BF6DDC45CF6FF0E5B1581
:103B40005D6F010E5C155E6F5D510008766F5E5112
:103B5000D8A0E82A0208776F7651575D77515859F7
:103B6000D8B0B5EF9DF0B7EF9DF0BBEF9DF057C615
:103B700076F658C677F670C609F571C60AF520EED6
:103B800010F05351D9265451DA22DEC45BF6DDC45D
:103B90005CF6FF0E5B155D6F010E5C155E6F5D518F
:103BA00053255F6F5E515421606F220E5F250B6EAF
:103BB000000E60210C6E76C60DF577C60EF5C0ECD2
:103BC000F9F006017651575F7751585B59C6D9F421
:103BD0005AC6DAF47651DE267751DD227651702707
:103BE0007751712320EE10F05351D9265451DA2227
:103BF0007651DE267751DE22000EDE22DE22FCEF39
:103C00009AF0000E12005AC6D9F45BC6DAF4DEC48C
:103C100071F6DDC472F606015C515D115E115F1133
:103C2000D8A415EF9EF017EF9EF04FEF9EF020EE18
:103C30000CF07151D9267251DA22DEC469F6DEC465
:103C40006AF6DEC46BF6DEC46CF669516A116B115C
:103C50006C11D8B42EEF9EF030EF9EF045EF9EF041
:103C600020EE14F07151D9267251DA22DE50695DCE
:103C7000DE506A59DE506B59DE506C59D8A043EFC4
:103C80009EF045EF9EF0B4EF9EF0010E696F000EBE
:103C90006A6F000E6B6F000E6C6FB4EF9EF05AC629
:103CA00039F65BC63AF65CC63BF65DC63CF65EC6C8
:103CB0003DF65FC63EF671ECAEF039C673F63AC615
:103CC00074F63BC675F63CC676F60601765175115C
:103CD000741107E1020E735DD8B071EF9EF073EFBF
:103CE0009EF07DEF9EF0010E5A6F000E5B6F000E8E
:103CF0005C6F000E5D6FDAEFA0F073290AE17429A2
:103D000008E1752906E17629D8A489EF9EF08BEFAA
:103D10009EF095EF9EF073C65AF674C65BF675C6B4
:103D20005CF676C65DF6DAEFA0F020EE14F0715185
:103D3000D9267251DA22DE50735DDE507459DE509E
:103D40007559DE507659D8B0A8EF9EF0AAEF9EF0D4
:103D5000ACEF9EF08BEF9EF05CC669F65DC66AF62E
:103D60005EC66BF65FC66CF620EE10F07151D92678
:103D70007251DA22DE50DE10DE10DE10D8A4C3EF5E
:103D80009EF0C5EF9EF0CFEF9EF0000E5A6F000E32
:103D90005B6F000E5C6F000E5D6FDAEFA0F0000E3F
:103DA0006D6F000E6E6F000E6F6F000E706F5C51C6
:103DB00069190DE15D516A190AE15E516B1907E15C
:103DC0005F516C19D8A4E7EF9EF0E9EF9EF08FEFFA
:103DD0009FF0010E69256D6F000E6A216E6F000E57
:103DE0006B216F6F000E6C21706F20EE14F071511B
:103DF000D9267251DA22DE506D5DDE506E59DE50EA
:103E00006F59DE507059D8A008EF9FF00AEF9FF06D
:103E100012EF9FF0020E6D6F000E6E6F000E6F6F4F
:103E2000000E706F5AC639F65BC63AF66DC63BF6A1
:103E30006EC63CF66FC63DF670C63EF671ECAEF04F
:103E400039C673F63AC674F63BC675F63CC676F6C6
:103E500006017305741175117611D8B432EF9FF015
:103E600034EF9FF08BEF9EF073290AE1742908E18B
:103E7000752906E17629D8A440EF9FF042EF9FF024
:103E800044EF9FF08BEF9EF0735174117511761112
:103E9000D8B44DEF9FF04FEF9FF08FEF9FF020EEE3
:103EA0000CF07151D9267251DA22DEC473F6DEC4E9
:103EB00074F6DEC475F6DEC476F6765175117411AB
:103EC00009E1020E735DD8A068EF9FF06AEF9FF0E2
:103ED00087EF9FF020EE14F07151D9267251DA224B
:103EE000DE50735DDE507459DE507559DE507659E0
:103EF000D8B07DEF9FF07FEF9FF087EF9FF073C604
:103F000069F674C66AF675C66BF676C66CF6000E70
:103F10006D6F000E6E6F000E6F6F000E706F6D5143
:103F20006E116F117011D8A498EF9FF09AEF9FF067
:103F300027EFA0F069C66DF66AC66EF66BC66FF61F
:103F40006CC670F6010E6D27000E6E236F23702372
:103F500020EE14F07151D9267251DA22DE506D5DD7
:103F6000DE506E59DE506F59DE507059D8A0BBEF4D
:103F70009FF0BDEF9FF0D4EF9FF0020E6D6F000E2B
:103F80006E6F000E6F6F000E706F6C516B116A11C7
:103F900007E1020E695DD8B0D0EF9FF0D2EF9FF03D
:103FA000D4EF9FF0C5EF9EF05AC639F65BC63AF6DD
:103FB0006DC63BF66EC63CF66FC63DF670C63EF665
:103FC00071ECAEF039C673F63AC674F63BC675F6B8
:103FD0003CC676F606017351741175117611D8A49A
:103FE000F4EF9FF0F6EF9FF0F8EF9FF027EFA0F0CF
:103FF0007305741175117611D8B401EFA0F003EFB9
:10400000A0F08BEF9EF073290AE1742908E175296D
:1040100006E17629D8A40FEFA0F011EFA0F013EF7E
:10402000A0F08BEF9EF069516D190DE16A516E1988
:104030000AE16B516F1907E16C517019D8A423EF95
:10404000A0F025EFA0F0A2EF9FF0C5EF9EF071C6A3
:1040500039F672C63AF66DC63BF66EC63CF66FC6CA
:104060003DF670C63EF6FF0E3F6FFF0E406FFF0E2F
:10407000416FFF0E426F51ECA3F00601686F68516B
:10408000D8A445EFA0F047EFA0F06AEFA0F05C5194
:104090005D115E115F11D8B450EFA0F052EFA0F0A7
:1040A0006AEFA0F071C639F672C63AF65CC63BF606
:1040B0005DC63CF65EC63DF65FC63EF66DC63FF693
:1040C0006EC640F66FC641F670C642F651ECA3F0DC
:1040D0000601686F6851D8A470EFA0F072EFA0F0ED
:1040E000BCEFA0F020EE0CF07151D9267251DA220B
:1040F0006DC6DEF46EC6DEF46FC6DEF470C6DEF4A6
:1041000020EE10F07151D9267251DA2210EE14F01F
:104110007151E1267251E222FE0EE624646FFF0E19
:10412000E620656FFF0EE620666FFF0EE620676FE4
:10413000DE50645DDE506559DE506659DE506759C9
:10414000D8A0A5EFA0F0A7EFA0F0B2EFA0F020EE6E
:1041500010F07151D9267251DA22DE06000EDE5AB5
:10416000DE5ADE5A20EE05F07151D9267251DA225C
:10417000000EDB80D2EFA0F06805D8B4C2EFA0F04B
:10418000C4EFA0F0CEEFA0F0010E6D6F000E6E6FC9
:10419000000E6F6F000E706FD2EFA0F06D696E6948
:1041A0006F6970696DC65AF66EC65BF66FC65CF6CF
:1041B00070C65DF61200CE0E0601E86F070EE96FBD
:1041C000DDC5EAF6DEC5EBF6EC91E8C6E1F5E9C639
:1041D000E2F5E1C509F5E2C50AF55CECFCF0060183
:1041E000F151F211D8B4F7EFA0F0F9EFA0F000EF21
:1041F000A1F0320E0501C36FFC0EC46FDDECFCF0C4
:10420000E1C5D1F5E2C5D2F5D9C5D3F5DAC5D4F506
:10421000010E0501D56F000ED66FB0ECE1F0E1C5DF
:104220000DF5E2C50EF524ECFDF0E1C513F5E2C590
:1042300014F5000E166E0A0E156E11ECF8F0A0ECD7
:10424000FCF0000E306E000E316E000E326E000E6D
:10425000336EE30E346E050E356E000E376E010EB2
:10426000366E000EE5ECF4F00601F151F211D8B40F
:104270003CEFA1F03EEFA1F048EFA1F0540E050194
:10428000C36FFD0EC46FE3C5C5F5C66BDDECFCF076
:104290000501E305D8B44FEFA1F051EFA1F069EFAC
:1042A000A1F00601F151F211D8B459EFA1F05BEF82
:1042B000A1F062EFA1F0770E0501C36FFE0EC46F8F
:1042C000DDECFCF0000E0501DA6F010ED96F50EF46
:1042D000A3F0AA0E306E010E316E000E326E000E8B
:1042E000336EE30E346E050E356E000E376E050E1E
:1042F000366E080EE5ECF4F00601F151F211D8B477
:1043000084EFA1F086EFA1F09CEFA1F0100E050163
:10431000C36FF80EC46FE3C5C5F5C66BE4C5C7F53A
:10432000C86BE5C5C9F5CA6BE6C5CBF5CC6BE7C56F
:10433000CDF5CE6BDDECFCF00501E305D8A4A3EFD1
:10434000A1F0A5EFA1F0B5EFA1F0E6A1AAEFA1F0D1
:10435000ACEFA1F0B5EFA1F0AA0EE719D8B4B3EF16
:10436000A1F0B5EFA1F0CDEFA1F00601F151F211EE
:10437000D8B4BDEFA1F0BFEFA1F0C6EFA1F03B0EA6
:104380000501C36FFD0EC46FDDECFCF0000E0501EE
:10439000DA6F020ED96F50EFA3F0000EE06F000E3F
:1043A000DF6FE0BFDDEFA1F0B80EDF5D0B0EE0596F
:1043B000D8A0DDEFA1F0DFEFA1F0E1EFA1F016EF63
:1043C000A2F0000E306E000E316E000E326E000E46
:1043D000336EE30E346E050E356E000E376E010E31
:1043E000366E370EE5ECF4F0000E306E000E316ED6
:1043F000000E326E400E336EE30E346E050E356ED7
:10440000000E376E050E366E290EE5ECF4F0050150
:10441000E351D8A40EEFA2F010EFA2F012EFA2F039
:1044200016EFA2F0DF4BE02BD1EFA1F00601F15126
:10443000F211D8B41EEFA2F020EFA2F02AEFA2F002
:10444000BA0E0501C36FFC0EC46FE3C5C5F5C66B9C
:10445000DDECFCF00501E351D8B431EFA2F033EF0D
:10446000A2F049EFA2F00601F151F211D8B43BEFEE
:10447000A2F03DEFA2F062EFA1F0950E0501C36F2F
:10448000FA0EC46FE3C5C5F5C66BDDECFCF062EF58
:10449000A1F0000E306E000E316E000E326E000E76
:1044A000336EE30E346E050E356E000E376E050E5C
:1044B000366E3A0EE5ECF4F00601F151F211D8B483
:1044C00064EFA2F066EFA2F07CEFA2F0B50E05015A
:1044D000C36FF70EC46FE3C5C5F5C66BE4C5C7F57A
:1044E000C86BE5C5C9F5CA6BE6C5CBF5CC6BE7C5AE
:1044F000CDF5CE6BDDECFCF0E3C550F5FE0E5016AD
:10450000D8B485EFA2F087EFA2F0A2EFA2F00601E7
:10451000F151F211D8B48FEFA2F091EFA2F09BEF1E
:10452000A2F04E0E0501C36FFA0EC46FE3C5C5F5C8
:10453000C66BDDECFCF0000E0501DA6F030ED96FDF
:1045400050EFA3F00501E4BDA8EFA2F0AAEFA2F09E
:10455000BDEFA2F00601F151F211D8B4B2EFA2F012
:10456000B4EFA2F0C6EFA1F0ED0E0501C36FF80E97
:10457000C46FDDECFCF0C6EFA1F00601F151F211C1
:10458000D8B4C5EFA2F0C7EFA2F0CEEFA2F0B90EFB
:104590000501C36FF90EC46FDDECFCF00501E4BF4B
:1045A000D4EFA2F0D6EFA2F0E9EFA2F00601F151AC
:1045B000F211D8B4DEEFA2F0E0EFA2F09BEFA2F090
:1045C000420E0501C36FF90EC46FDDECFCF09BEFEA
:1045D000A2F00601F151F211D8B4F1EFA2F0F3EF1D
:1045E000A2F0FAEFA2F09C0E0501C36FFE0EC46F9D
:1045F000DDECFCF0010E306E000E316E000E326EFE
:10460000000E336EE30E346E050E356E000E376EFF
:10461000010E366E3B0EE5ECF4F00501E351D8B423
:1046200014EFA3F016EFA3F02CEFA3F00601F15165
:10463000F211D8B41EEFA3F020EFA3F09BEFA2F08D
:10464000FD0E0501C36FFA0EC46FE3C5C5F5C66B59
:10465000DDECFCF09BEFA2F0E1C5D1F5E2C5D2F5AF
:10466000DBC5D3F5DCC5D4F5010ED56F000ED66FD2
:10467000B0ECE1F00601F151F211D8B442EFA3F031
:1046800044EFA3F04BEFA3F02A0E0501C36FFA0E1F
:10469000C46FDDECFCF0000E0501DA6F000ED96F7F
:1046A0001200020E0601596F3E513D113C1109E105
:1046B000020E3B5DD8A05FEFA3F061EFA3F0C5EF62
:1046C000A5F020EE14F03951D9263A51DA22DE5005
:1046D0003B5DDE503C59DE503D59DE503E59D8B06E
:1046E00074EFA3F076EFA3F0C5EFA5F0B2EFA5F05D
:1046F0003BC657F63CC658F6D8905831446F5731F0
:10470000436F435157274451582339C62EF63AC6B2
:104710002FF620EE20F03951D9263A51DA22DEC4A4
:1047200043F6DEC444F6DEC445F6DEC446F657C69C
:1047300047F658C648F6090E496FD89048334733B4
:10474000492F9DEFA3F047514325306F4851442135
:10475000316F000E4521326F000E4621336F38EC69
:10476000EDF00601596F5951D8B4B9EFA3F0BBEF82
:10477000A3F0BDEFA3F0C5EFA5F0FF0E5715436FF3
:10478000010E5815446F43513925456F44513A2164
:10479000466F300E4525556F000E4621566F574B1C
:1047A000582B3BB1D6EFA3F0D8EFA3F0DDEFA3F089
:1047B0003FC651F6526BF7EFA3F03F51436F446B86
:1047C000433B443BF00E441743510F0B4413F00E90
:1047D000431755C6D9F456C6DAF4DF500F0B456FB0
:1047E000466B43514511516F44514611526F55C6A6
:1047F000D9F456C6DAF451C6DFF420EE04F039518C
:10480000D9263A51DA22010EDF6E39C62EF63AC6A3
:104810002FF620EE20F03951D9263A51DA22DEC4A3
:1048200043F6DEC444F6DEC445F6DEC446F657C69B
:1048300047F658C648F6090E496FD89048334733B3
:10484000492F1DEFA4F047514325306F48514421B3
:10485000316F000E4521326F000E4621336F38EC68
:10486000EDF00601596F5951D8B439EFA4F03BEF80
:10487000A4F03DEFA4F0C5EFA5F0FF0E5715436F70
:10488000010E5815446F43513925456F44513A2163
:10489000466F300E4525556F000E4621566F3BB1D1
:1048A00054EFA4F056EFA4F074EFA4F03FC643F623
:1048B00040C644F641C645F642C646F644C643F6EF
:1048C00045C644F646C645F6466B0F0E431755C619
:1048D000D9F456C6DAF4DF50F00B4311476F475155
:1048E000536F546B8AEFA4F03FC643F640C644F6BC
:1048F00041C645F642C646F6050E84EFA4F0D890B0
:104900004633453344334333E82E7FEFA4F043511D
:10491000536F546B55C6D9F456C6DAF453C6DFF458
:1049200020EE04F03951D9263A51DA22010EDF6E19
:10493000C5EFA5F039C62EF63AC62FF620EE20F0C8
:104940003951D9263A51DA22DEC443F6DEC444F6A0
:10495000DEC445F6DEC446F63BC647F63CC648F61E
:104960003DC649F63EC64AF648C647F649C648F629
:104970004AC649F64A6B43514725306F4451482196
:10498000316F45514921326F46514A21336F38EC1E
:10499000EDF00601596F5951D8B4D1EFA4F0D3EF1F
:1049A000A4F0D5EFA4F0C5EFA5F03BC643F63CC696
:1049B00044F6D89043374437FF0E4315456F010E38
:1049C0004415466F45513925476F46513A21486F86
:1049D000300E4725096E000E48210A6E3FC60BF5C2
:1049E00040C60CF5C9ECFCF0060120EE04F039518C
:1049F000D9263A51DA22010EDF6EC5EFA5F039C68D
:104A00002EF63AC62FF620EE20F03951D9263A512B
:104A1000DA22DEC443F6DEC444F6DEC445F6DEC464
:104A200046F63BC647F63CC648F63DC649F63EC686
:104A30004AF6080E21EFA5F0D8904A33493348339F
:104A40004733E82E1CEFA5F043514725306F445102
:104A50004821316F45514921326F46514A21336F08
:104A600038ECEDF00601596F5951D8B43AEFA5F082
:104A70003CEFA5F03EEFA5F0C5EFA5F03BC643F631
:104A80003CC644F6D89043374437D8904337443730
:104A9000FF0E4315456F010E4415466F45513925EC
:104AA000476F46513A21486F300E4725096E000E78
:104AB00048210A6E27ECEFF0000E09140601496F39
:104AC000000E0A144A6F000E0B144B6FF00E0C14FC
:104AD0004C6FFF0E3F154D6FFF0E40154E6FFF0ED2
:104AE00041154F6F0F0E4215506F49514D113F6FD9
:104AF0004A514E11406F4B514F11416F4C51501163
:104B0000426F3BC643F63CC644F6D8904337443721
:104B1000D89043374437FF0E4315456F010E4415B7
:104B2000466F45513925476F46513A21486F300E3F
:104B30004725096E000E48210A6E3FC60BF540C698
:104B40000CF541C60DF542C60EF548ECF6F006012F
:104B500020EE04F03951D9263A51DA22010EDF6EE7
:104B6000C5EFA5F039C6D9F43AC6DAF4DF50010A28
:104B7000D8B478EFA3F0030AD8B49AEFA4F0010AEE
:104B8000D8B4FFEFA4F0C5EFA5F0595112000C50B6
:104B9000800B156E0C500C24176E0BAED2EFA5F0E7
:104BA000D4EFA5F0D5EFA5F017801750D8B4DBEF00
:104BB000A5F0DDEFA5F0F1EFA5F01728D8A4E3EFFD
:104BC000A5F0E5EFA5F0EDEFA5F0000E096E000EE3
:104BD0000A6E000E0B6E000E0C6E0B8E0C6AF9EF57
:104BE000A5F0000E096E000E0A6E000E0B6E000E90
:104BF0000C6E1050800B166E15501618D8B403EFBB
:104C0000A6F005EFA6F006EFA6F0158C10501024C4
:104C1000166E0FAE0EEFA6F010EFA6F011EFA6F095
:104C200016801650D8B417EFA6F019EFA6F02DEFA6
:104C3000A6F01628D8A41FEFA6F021EFA6F029EFC2
:104C4000A6F0000E0D6E000E0E6E000E0F6E000E22
:104C5000106E0F8E106A35EFA6F0000E0D6E000E6E
:104C60000E6E000E0F6E000E106E1750165CD8B050
:104C70003CEFA6F03EEFA6F065EFA6F015AC43EFD3
:104C8000A6F045EFA6F047EFA6F0800E151A17C55F
:104C900018F516C517F518C516F509C518F50DC58B
:104CA00009F518C50DF50AC518F50EC50AF518C59C
:104CB0000EF50BC518F50FC50BF518C50FF50CC58E
:104CC00018F510C50CF518C510F5186A175016C55B
:104CD00011F5126A115E000E125A12BE79EFA6F09B
:104CE000125009E11A0E115CD8A079EFA6F07BEF03
:104CF000A6F0B2EFA6F009500A100B100C10D8A4C1
:104D000084EFA6F087EFA6F0010E88EFA6F0000E64
:104D1000186E000E096E000E0A6E000E0B6E000E6D
:104D20000C6E16C517F5BBEFA6F018A09AEFA6F00B
:104D30009CEFA6F0A2EFA6F0D89018300109186EEB
:104D4000A4EFA6F0D890183209A0A9EFA6F0ABEF17
:104D5000A6F0ACEFA6F0188E0C340C320B320A32EF
:104D60000932172A1650175CD8A0B9EFA6F0BBEF8E
:104D7000A6F095EFA6F015BCC0EFA6F0C2EFA6F026
:104D800002EFA7F01750D8A4C8EFA6F0CAEFA6F01C
:104D9000D4EFA6F0000E096E000E0A6E000E0B6E28
:104DA000000E0C6E21EFA8F00D5009260E500A22BD
:104DB0000F500B2210500C220CA0E1EFA6F0E3EFF5
:104DC000A6F08FEFA7F018A0E8EFA6F0EAEFA6F0A4
:104DD000F0EFA6F0D89018300109186EF2EFA6F0A7
:104DE000D890183209A0F7EFA6F0F9EFA6F0FAEF85
:104DF000A6F0188E0C340C320B320A320932172A04
:104E00008FEFA7F00D50095C0E500A580F500B5849
:104E10000C50800A116E1050800A1158D8B013EF50
:104E2000A7F015EFA7F040EFA7F009500D5C116E49
:104E30000A500E58126E0B500F58136E0C5010582B
:104E4000146EFF0E1124096EFF0E12200A6EFF0E63
:104E500013200B6EFF0E14200C6E800E151A186CAA
:104E60001850D8A436EFA7F038EFA7F048EFA7F016
:104E7000010E0926000E0A220B220C2248EFA7F091
:104E80000D50095E0E500A5A0F500B5A10500C5A12
:104E900009500A100B100C10D8A451EFA7F053EFD3
:104EA000A7F088EFA7F01850D8A459EFA7F05BEF50
:104EB000A7F088EFA7F0000E096E000E0A6E000E34
:104EC0000B6E000E0C6E21EFA8F0D89009360A3652
:104ED0000B360C3618AE6FEFA7F071EFA7F072EF3C
:104EE000A7F0098018A077EFA7F079EFA7F07DEF82
:104EF000A7F0D88018367FEFA7F0D8901836175053
:104F0000D8B485EFA7F087EFA7F088EFA7F01706D2
:104F10000BAE8DEFA7F08FEFA7F065EFA7F0166A45
:104F200018AE95EFA7F097EFA7F0AFEFA7F018C571
:104F300011F57F0E1116D8B4A0EFA7F0A2EFA7F0DD
:104F4000A6EFA7F0010E166EAFEFA7F009A0ABEF2A
:104F5000A7F0ADEFA7F0AFEFA7F0A2EFA7F01650C4
:104F6000D8B4B5EFA7F0B7EFA7F0E2EFA7F0010EC6
:104F70000926000E0A220B220C220CA0C2EFA7F079
:104F8000C4EFA7F0E2EFA7F009C511F50AC512F5C5
:104F90000BC513F50CC514F5143414321332123248
:104FA000113211C509F512C50AF513C50BF514C563
:104FB0000CF51728D8B4DFEFA7F0E1EFA7F0E2EF88
:104FC000A7F0172A1728D8B4E8EFA7F0EAEFA7F060
